:020000040800F2
:10000000000200202D040008B9030008C9030008FD
:10001000D9030008E9030008F90300080000000004
:100020000000000000000000000000009D03000828
:1000300009040008000000008103000819040008FA
:1000400031010008310100083101000831010008C8
:100050003101000831010008D1130008D113000854
:10006000D1130008D1130008D11300083101000892
:100070003101000831010008C10A000831010008FF
:10008000C70A0008310100083101000831010008E9
:10009000310100083101000831010008D1130008C6
:1000A0003101000831010008310100083101000868
:1000B000551700085B1700083101000831010008DE
:1000C0003101000831010008310100083101000848
:1000D00031010008FD06000803070008310100088F
:1000E000D113000831010008310100083101000876
:1000F0003101000831010008310100083101000818
:100100003101000831010008310100083101000807
:1001100031010008310100083101000831010008F7
:1001200031010008310100083101000831010008E7
:1001300000F072B900F0B4B97047000070B50C4619
:10014000064600F09DF9094B094A1D682C4494426B
:1001500002D8084A944207D20C234FF0FF3533608F
:1001600000F096F9284670BD1C60F9E700020020F7
:1001700000000120703D00201946104600F09CB997
:100180001946104600F0A0B9132303604FF0FF306A
:100190007047132303604FF0FF3070471323036051
:1001A0004FF0FF3070470023022903608CBF00200E
:1001B00001207047134910B50C68002094FAA4F18F
:1001C0008442B1FA81F108BF4FF0FF310E4C0F4B62
:1001D00054F8211018600E4B09681A68A1F1080440
:1001E000A2420ED022B110790A2804BF0B20107150
:1001F0000A22012001F8042C31F9021C054A1C6076
:10020000118010BD44040020580400205004002038
:100210004C04002048040020092930B503791AD97C
:10022000092B14D842791A4B00F1080453F82250D4
:100230007DB12D68856053F822502C6043F8224030
:100240000123144A4479A3401468234313600171C5
:1002500030BD8460F2E7092BF9D945790C4B53F88E
:1002600025203AB11468A2420BBF0022246843F84B
:1002700025201460427953F82230002BE7D1012366
:10028000044C03FA02F2236823EA02032360DEE748
:10029000580400204404002008B5094B1B681A7953
:1002A000092A02D95B79834205D900F0F4F818B124
:1002B0000122044B1A6008BDBDE8084000F058B8A0
:1002C0004C04002050040020002408B500F0D8F8A9
:1002D000084B094A1B88094D1BB242F82340084AC3
:1002E000214613682868013B1360FFF795FF2C60D7
:1002F00000F03AF848040020980400204C04002044
:100300005404002013444FF0773223F0030310B558
:100310001C1F43F8042C620742BF4FF08832A3F140
:10032000080443F8082C4FF0807344E902030D4B96
:10033000002244F80C3C0323022044E90532012347
:10034000224644E907300B2342F8201D42F8043DC1
:10035000013B032BFAD120466FF0020340F8443DE5
:1003600010BD00BFC902000800F08EF801DFFEE7F3
:10037000024A536843F080535360704700ED00E039
:10038000EFF3098020E9F00F40F804ED0249096815
:10039000086000F003F800004C040020FFF70AFF9B
:1003A00004480068016801C9B1E8F00F81F30988C9
:1003B000004700004C04002008B50249042000F06A
:1003C000C7FD00BFA4C1000808B50249052000F020
:1003D000BFFD00BF7EC1000808B50249062000F03D
:1003E000B7FD00BF91C1000808B50249072000F021
:1003F000AFFD00BF4CC1000808B50249082000F05D
:10040000A7FD00BFB0C1000808B50249092000F0EF
:100410009FFD00BF5EC1000808B502490A2000F038
:1004200097FD00BF70C100087047704708B5FFF71F
:10043000FBFF0E4A0E4B0F498B420ED300210E4B91
:100440000E4A93420ED3FFF7F0FF00F05BFD0AF077
:10045000F3FDBDE8084000F0F9BD52F8040F43F881
:10046000040BE9E743F8041BEBE700BF00DA0008E0
:10047000000200204404002044040020703D0020BD
:10048000EFF3108072B6704762B6EFF310807047DA
:1004900080F310887047EFF30580C0B2704700000A
:1004A000024B034A0349002000F0D2B804020020A6
:1004B000E911000820A107000A460146014800F0A2
:1004C0009EBE00BF0402002010B50C460A4601463D
:1004D000002000F02FF8204610BD00001C235843D8
:1004E000024B1A5813685B06FCD57047C4C100085C
:1004F00038B51C2343430C4AD4582568AA0608D5AE
:100500000A4B616803EBC002C9B253F8303050683F
:1005100098472B0748BF6368054B1B681BB1BDE8B4
:100520003840FFF725BF38BDC4C100085C05002076
:10053000500400202DE9FF4707460D469046002A4B
:1005400060D01C264643DFF8D4A00AEB0604D4F89A
:100550001490B9F1FF3F09D123468A18914254D132
:10056000384604B0BDE8F047FFF7B8BFFFF793FF88
:100570005AF8066050B3746914F080040BD04846F2
:1005800000F0DCF9044630B1484600F049FA7369DE
:1005900023F080037361294605EB080291420ED1D6
:1005A00084B33846FFF79AFF21464846736943F003
:1005B0008003736104B0BDE8F04700F00FBA11F892
:1005C000013B30680006FCD57360E7E7484600F061
:1005D00025F97369217E43F08003736101232A4664
:1005E000CDE90133CDF80080331D484600F026FAEE
:1005F000484600F023F93846FFF770FF736923F08F
:100600008003736104B0BDE8F08711F8014B1868EE
:1006100005682D06FCD54460A0E700BFC4C10008F2
:10062000094B10B553F83030044613B1012000F0E7
:1006300013FF1C22054B02FB04346168207CBDE8DB
:10064000104000F0B1BF00BF5C050020C4C100082D
:100650002DE9F8434FF01C081746254C254A08FBA6
:100660000048D8F80C9042F8307002EBC00253609A
:1006700006460D464846032100F0D3FD484600F0EB
:1006800026FE0B21484600F000FE27B10421D8F8D1
:10069000080000F0C6FD3046FFF7C2FF1C235E4392
:1006A000002304EB0608A45998F81000E3602361C6
:1006B000636100F05DFFB0FBF5F080B2A0609FB118
:1006C00098F8112053B2002B08DB012102F01F0221
:1006D00001FA02F208495B0941F8232042F22C0397
:1006E000E3600020BDE8F88342F20803F8E700BFAA
:1006F000C4C100085C05002000E100E00020FFF715
:10070000F7BE0120FFF7F4BE10B598B1012821D043
:100710000024164A136923F004031361FFF7B0FEA7
:10072000BFF34F8F30BFFFF7B3FEECB1BDE8104011
:1007300000F0B2BE0E4B1A6842F00E021A605A6800
:1007400042F480725A60094A0124136943F0040399
:100750001361E3E7064B1A6822F003021A601A6875
:1007600042F001021A60EEE710BD00BF00ED00E0AC
:1007700000700040054A064B0628C8BF13461422E5
:1007800000F0070002FB0030083070470004024010
:100790000000024006280DDC0B3040B2002808DBC8
:1007A0000123420900F01F0003FA00F0044B43F854
:1007B000220070470A28DABF383040B23B20EFE70A
:1007C00000E100E0074B084953F82030074A062BA8
:1007D000C8BF0A460F2103F007039B0001FA03F389
:1007E00053607047FCC10008000402400000024052
:1007F00038B5094C00252046012140F8045F2560EA
:1008000000F0BEFB2046E56040F8105F0121BDE826
:10081000384000F0B5BB00BF6C0500200C2208B5C5
:10082000054B012102FB003000F0AAFBBDE80840A7
:10083000012000F011BE00BF6C05002010B5044679
:10084000012000F019FE0C20034B00FB0430BDE832
:10085000104000F0C5BB00BF6C0500202DE9F84F2B
:100860009B462D4B044653F8205092462846FFF7EE
:1008700081FF072DC8BF02210746DABF01210220F0
:1008800008469DF82C800A9E9DF8309000F08CFE62
:100890002046FFF797FFB8F1010F31D002D3B8F12E
:1008A000020F36D1C7F808A009F00101C7F80CB053
:1008B000C9F34002C9F381094FEA08104FEA09233E
:1008C00000F0100043EA89234FEA4838034308F454
:1008D000804843EA080343EA811343EAC2130C2227
:1008E0003B603B68284643F00A033B600B4B7E604D
:1008F00002FB04342681FFF74DFF0020BDE8F88F8E
:10090000C7F808B0C9F34001C7F80CA009F001020C
:10091000D0E74FF0FF30F1E7FCC100086C05002084
:1009200008B5054B53F82000FFF724FF036843F098
:100930000103036008BD00BFFCC1000838B5254BAA
:10094000014653F820402046FFF714FF0546006893
:1009500010F0010030D0062C2FDC04F10B035BB249
:10096000002B0DDB01205A0903F01F0300FA03F3EB
:100970001948203240F82230BFF34F8FBFF36F8FFA
:100980002B6823F001032B602B68DB07FCD408469F
:10099000FFF718FF6868062C80B215DC0B3464B2D0
:1009A000002C09DB0122630904F01F0402FA04F49D
:1009B000094A603342F8234038BD0A2CDABF04F1FB
:1009C00038035BB23B23CDE70A2CDABF383464B27C
:1009D0003B24E7E7FCC1000800E100E00E4B70B5E6
:1009E00053F8206005463046FFF7C4FE044689B13F
:1009F0003046FFF7CFFE0C20084B616000FB053549
:100A00002B89E2685B1A1344E3602368298143F071
:100A10000103236070BD00BFFCC100086C0500200D
:100A200008B5054B53F82000FFF7A4FE036823F038
:100A30000103036008BD00BFFCC100087FB59DF83D
:100A40002860089D02969DF824600446CDE9005672
:100A5000FFF704FF70B92046FFF762FF0C20064B3A
:100A6000012100FB0430043000F08AFA2046FFF731
:100A7000D7FF284604B070BD6C0500200C23034A44
:100A8000012103FB0020043000F07ABA6C0500203D
:100A900010B50446FFF796FE0C23074803FB04003D
:100AA000043000F09DFA054B1B681BB1BDE81040F7
:100AB000FFF75EBC10BD00BF6C0500205004002095
:100AC0000020FFF7E5BF0120FFF7E2BF002000F0A4
:100AD000EDBD000038B5044C2568FFF7F7FF23682B
:100AE000AB42F9D1184338BD8C050020034B19687F
:100AF00019B982B2084600F0B9BD704784050020DC
:100B000010B5094A136843B19C6881688C4207D3C9
:100B100003D15C6841688C4202D90360106010BD4B
:100B20001A461B68EFE700BF900500202DE9F0474B
:100B3000294E3268B24602F58032326032681AB904
:100B4000264B1A6801321A600020254B254C1A6882
:100B50001860236884461946234FDFF880E0DFF8E9
:100B60008C803A6021B1DEF800508E68AE4217D911
:100B700000B12160BCF1000F10D00021CCF80010B2
:100B80003AB3C3B15168586881428CBF19461146C7
:100B9000084612681B6882B903603960BDE8F087B7
:100BA0004D68DAF8009005EA08054D45E0D18C461D
:100BB00001200968D6E71146EAE70BB90260ECE7C5
:100BC00054685D68AC428CBF1C46144604602046E5
:100BD000DFE73B60E2E700BF8C05002088050020CE
:100BE0009405002090050020980500200000FFFFDC
:100BF00001232DE9F041324F324C3B602368CBB9E1
:100C0000FFF794FF4FF6FF75FFF760FFA842FBD098
:100C100000254FF00008236883B9FFF757FF143011
:100C2000854228D9FFF782FFFFF750FF8542FBD3AB
:100C30000025F0E7FFF74AFF0546EAE75E68FFF7A1
:100C400045FF854205D8B3B2834202D91B1A132B44
:100C5000E3D823685E68FFF739FF854202D8B6B251
:100C60008642F6D823681A68C3E901882260D3E96E
:100C700003209047CFE723686BB15E68FFF72AFF38
:100C8000063E14308642C6D3002330463B60BDE8A2
:100C9000F041FFF72BBFFFF719FF8542064602D947
:100CA000FFF744FFC4E700F114039BB2984204D954
:100CB000FFF70CFF8642FBD9F2E74FF6FF76E3E73A
:100CC0008405002098050020144A1368834210D13F
:100CD0001B6813601BB158680638FFF707BF4FF653
:100CE000FF70FAE79842196801D1116070471A46FF
:100CF0000B46002BF6D10A4A13681BB9094A136840
:100D000033B9704798421968EFD01A460B46F4E79A
:100D100098421968E9D01A460B46F1E79805002079
:100D2000940500209005002008B50023054A1846C8
:100D3000054900F0CDFCBDE808404FF0FF30FFF75B
:100D4000D5BE00BFF10B000840420F0070B5084E41
:100D5000FFF7C0FE34680546FFF7BCFE8542F7D8B2
:100D600000222346141843F100052046294670BD91
:100D700088050020F8B504460D46FFF7ABFE0023BA
:100D800023602B1A1E2B07460DD8ADB2FFF79EFE2F
:100D90008542FBD3FFF79AFE8542FBD8D4E90330A6
:100DA00098470020F8BDFFF76BFB636806460BB958
:100DB000A36813B12046FFF787FF1D4BA81F1A68D1
:100DC000874288BF0132A2601B68A26865609A42B0
:100DD00005D8184B1A68030C1B049A4206D020460B
:100DE000FFF78EFE3046FFF753FBDAE7BFB2B8429B
:100DF0000ED9114B19461A6812B15768BD4213D269
:100E000022601C600B68A342ECD1FFF76FFEE9E79C
:100E10000A4A136813B159688D4202D223601460E4
:100E2000E0E71A461B68F5E713461268E4E700BFDF
:100E3000880500208C0500209805002094050020DE
:100E400038B50446FFF71CFB636805460BB9A36879
:100E500013B12046FFF738FF2846BDE83840FFF7BA
:100E600017BBC36870B504460D46CBB1FFF7E8FF6A
:100E70001D2D0DD8FFF72AFE0646FFF727FE801B23
:100E800080B28542F9D8D4E90330BDE870401847F4
:100E9000FFF720FE29182046BDE87040FFF76ABF23
:100EA00070BD00002DE9F04704460E4615461AB9FC
:100EB000BDE8F047FFF7D5BFFFF7E2FA63680746E2
:100EC0000BB9A36813B12046FFF7FEFEDFF830A090
:100ED000FFF700FEDAF800808146FFF7FBFD814551
:100EE000F6D83618454428BF013520466660A5600F
:100EF000FFF706FE3846BDE8F047FFF7C9BA00BF66
:100F00008805002070B50E4E0E4D00F021FB0E4CF2
:100F10000321304600F085F90321284600F081F9CD
:100F20000321204600F07DF9304600F0D0F9284634
:100F300000F0CDF92046BDE8704000F0C8B900BF10
:100F400002140140050C01400A10014070470000E6
:100F500008B5084B1A683AB9012207481A600AF026
:100F6000B1F806480AF0AEF8FFF78AFAFFF7EEFF8D
:100F700000F028F99C05002004C2000820C20008E7
:100F800070B504460D46FFF77BFA236806463BB969
:100F90004FF0FF332360FFF77BFA0125284670BD31
:100FA000C5B10E4B02211D682846FFF735F92368AD
:100FB00001330AD105F1080323600023AB603046FA
:100FC000FFF766FAFFF7D4F9E7E72946204600F075
:100FD00083F8F4E7FFF75CFAE0E700BF4C04002079
:100FE00070B50446FFF74CFA256806461DB9BDE802
:100FF0007040FFF74DBA6B1C02D100232360F6E767
:10100000284650F808390B212360FFF705F92368BB
:1010100013B94FF0FF33236015F8034C3046FFF748
:1010200037FA2046BDE87040FFF736B908B500F042
:10103000FFFB03480AF046F800F0C4FB002008BD9F
:1010400033C2000808B500F0EBF9FCE71FB5002437
:10105000FFF716FA0D4B0F221B684FF480710293B5
:101060000B4B019400930B480C2300F045F80A4BFE
:1010700007221B684FF4C061CDE90143074B0848C4
:1010800000930C2300F038F8FFF76EF918020020E7
:1010900045100008A00500201C0200202D100008AB
:1010A000A006002008B5FFF7EBF9094B1B681A7979
:1010B000092A07D95A79074B53F8221011B1096848
:1010C00043F82210FFF7E4F9BDE80840FFF750B9F4
:1010D0004C0400205804002030B54C7901F108027E
:1010E000036813B98B60026030BD13F8035CAC4237
:1010F000F8D31846F4E700000F2A2DE9F84F074609
:101100009046994627D810F003031CBFC3F104038F
:10111000C91AA1F1240118BFFF1821F00306FFF737
:10112000AFF901238346254ABC1952F823500FFA20
:1011300083FA9DB10133212BF7D15846FFF7A8F967
:101140006FF08A0A36E001212046FFF765F858461D
:10115000FFF79EF92EE06FF0150A2BE042F82340CE
:10116000DDE90A0133463A46A4F806A0FFF7CAF8BB
:101170004FF0FF33124AC4E90735136819F0010F25
:1011800003F10103206084F805802571C4E902554C
:10119000C4E90455A5611360D5D10B212046FFF7A2
:1011A0003BF819F0040FD2D15846FFF771F94046C9
:1011B000FFF772F85046BDE8F88F00BF9804002092
:1011C00054040020BFF34F8F0549064BCA6802F450
:1011D000E0621343CB60BFF34F8F00BFFDE700BF5A
:1011E00000ED00E00400FA0538B5054600F0D4FA39
:1011F000044605F11000FFF7F3FE204638BDF8B5B0
:1012000004460D46164600F1100732462946204690
:1012100000F0AFFA00B1F8BD01213846FFF7B0FE8B
:10122000F3E7FF29F8B504460E4620F00F0500F05D
:101230000F0727D00421C0F38323023B99400120EC
:1012400000F0B2F90F21FB1004F0070455F8232039
:10125000A400A14022EA010245F8232055F82310FA
:1012600006F00F0202FA04F40C4345F82340012370
:101270000020EA68BB40182E0CBF134322EA030388
:10128000EB60F8BD4FF0FF30FBE738B50D460421A9
:10129000C0F383230446023B9940012000F084F907
:1012A0000F2024F00F03C4F3C00204F0070453F826
:1012B0002210A400A04021EA000143F8221053F8B4
:1012C000221005FA04F40C4343F8224038BD0123F0
:1012D00020F00F0200F00F0003FA00F010617047D9
:1012E000012320F00F0200F00F0003FA00F050611C
:1012F000704700002DE9F84F4FF0010900F00F058D
:1013000009FA05FA6FEA0A089B462E4C174622682E
:10131000064602EA08022260FFF783FF2A4A0A9B78
:1013200042F835B002EBC50253604946484600F02A
:101330003BF90F2005F00C0303F1804303F58033E4
:1013400006F0030299689200904021EA000199603A
:10135000C6F383269968023E96400E439E60A368BA
:10136000042D08EA0303A360A26807EA090303FA4D
:1013700005F343EA0203A360E36827FA09F708EAE2
:101380000303E360E26807FA05F747EA0207E7604C
:101390000E4B0EDC063509FA05F51D60636800206A
:1013A00008EA0303636023684AEA03032360BDE895
:1013B000F88F092DD5BF4FF400024FF480721A60E8
:1013C0005A60EBE700040140A00C002000E100E0BF
:1013D0002DE9F04100244FF001080E4D0E4F6E69CB
:1013E0002A68164008FA04F3334206D06B6107EB13
:1013F000C40357F83420586890470134102CF1D1B9
:10140000064B1B681BB1BDE8F041FEF7B1BFBDE85C
:10141000F08100BF00040140A00C00205004002017
:10142000F8B50C4D2E6816F47F4F11D1F4B200348C
:1014300018BF0124FFF724F82B6807469E4202D10B
:101440002046FFF761F93846BDE8F840FFF720B8BD
:101450000224EFE72002002010B50446FFF710F841
:10146000044A135D0133DBB21355BDE81040FFF7AA
:101470000FB800BF2002002010B50446FFF700F8A7
:10148000044A135D013BDBB21355BDE81040FEF783
:10149000FFBF00BF2002002038B5FEF7F1FF002398
:1014A0001D4D0446AB6000F03BF84FF480636B6069
:1014B0002B465A6812F00C0FFBD11221174A11600B
:1014C00081221A601A6842F480321A601A68910305
:1014D000FCD55A6822F47C125A605A6842F4E81229
:1014E0005A605A6842F400325A601A6842F08072B8
:1014F0001A601A689201FCD55A6842F002025A60DA
:101500005A6802F00C02082AFAD100F015F82046B9
:10151000BDE83840FEF7BCBF00100240002002408A
:10152000044B1A6842F001021A601A689207FCD54F
:10153000704700BF00100240044B5A6812F00C0FB5
:101540001EBF1A6822F001021A60704700100240A4
:1015500008B500F05BFB4FF08051002000F024F84C
:10156000FFF79AFFFFF744F9BDE8084000F027B9FC
:10157000034A044B00280CBF10461846704700BFB2
:101580000051250200A24A04044A054B002818BF56
:101590001346044A105C5843704700BF00A24A0437
:1015A0000051250277C2000801280AD004D302287E
:1015B0000CD0BFF34F8F7047074AD3691943D161ED
:1015C000F7E7054A936919439161F2E7024A5369C3
:1015D00019435161EDE700BF00100240012809D016
:1015E00002D302280CD07047084AD36923EA0101CC
:1015F000D1617047054A936923EA010191617047FF
:10160000024A536923EA0101516170470010024008
:101610002DE9F84307460024114A0301D558DFF8A5
:1016200048802E69EB6808EBC0091E400223A340E6
:10163000334209D0EA68214622EA0303EB60D9F875
:10164000040058F8373098470134042CEED1054B8C
:101650001B681BB1BDE8F843FEF78ABEBDE8F883FE
:101660007CC2000850040020200D0020032910B582
:1016700016DC0D4B00011C18185863681A4001F164
:101680000C0300EB83035A600223026903FA01F1A1
:1016900022EA01020261C3681943C160002010BD43
:1016A0004FF0FF30FBE700BF7CC20008024B000197
:1016B0001B58586A704700BF7CC20008034B0001EA
:1016C0001A58136843F00103136070477CC2000886
:1016D00001282DE9F84304460E4631D8DFF8709012
:1016E000050109EB0507184997F80C8041F83020EF
:1016F00001EBC0014B604046B968FFF755FF00237E
:1017000059F8055040462B606B607B68EB62FFF731
:101710003BFFB0FBF6F00122797B01384BB2002B86
:10172000A8626A6106DB01F01F018A4007495B0974
:1017300041F823202046FFF7C1FF0020BDE8F883D1
:101740004FF0FF30FAE700BF200D002000E100E07D
:101750007CC200080020FFF75BBF0120FFF758BFE5
:1017600082680168531C83604368013B1340C85C76
:101770007047F8B505460F46164614461CB1AA68D0
:10178000EB689A4201D1301BF8BD2846FFF7E8FF0D
:10179000013C07F8010BF1E7C26830B58468436883
:1017A000121B9A4208D0C2680468551CC56000200C
:1017B000013B1340E15430BD4FF0FF30FBE7002008
:1017C00006F0E2BF00B51548C7B009F0EFFC0821EC
:1017D000134800F00FFA134809F0E8FC0021124802
:1017E00007F0B4F9114809F0E1FC0021084606F0C1
:1017F00039FB1222002101A809F05CFC04230093AC
:1018000041F233634FF4807206A96846ADF8163092
:1018100005F014FA002047B05DF804FB9CC20008F4
:10182000300D0020BEC20008C0C62D00E7C200086F
:1018300008B505F005FEFFF777FA03F0BDF903F0F0
:10184000E1FA00F085FC04F07DFF00F053FDBDE8F7
:10185000084000F001B8000013B5074C07492046C6
:1018600007F0E8FA0094064B02224FF48061054825
:1018700003F054F802B010BD7011002008C3000836
:1018800020C30008700D0020F8B505460E46FEF78F
:10189000F7FD374B374A1B8807461BB252F82330F7
:1018A0001A6A002A50D0D3E90542A2424CD0621CE9
:1018B0005A61DA69144046B91A6932B9621C04D116
:1018C0003846FEF7E5FD2046F8BD002C40DB1A6ADD
:1018D00002EBC40292E8030085E803001E69002EB3
:1018E00038D03268002C1A610DDBD3E9062559691E
:1018F000186A511A8D42B1BF4FF0FF32511C2A4075
:10190000996100EBC205736893E8030085E8030062
:1019100016F8043C052B15D000230B217360A6F1AB
:101920000800FEF779FC16F8034C3846FEF7B0FDC8
:101930000E2C1AD82046FEF7AFFC16E03846FEF70C
:10194000A7FD12E00F24F0E74FF0FF34002EB3D0D4
:10195000DD60C3E7002CF1DA18460321FEF75CFCDA
:101960003846FEF795FDFEF703FD0124ABE700BF07
:10197000480400209804002010B5D0E906324469DC
:101980001C1BA24201DA002010BD5C1C13408461C4
:10199000F9D4026A03C902EBC30383E80300012000
:1019A000F2E700002DE9F8431E46264B074653F8A0
:1019B0002150254B91461B8803803DB93046FEF7E8
:1019C00067FD4FF0FF342046BDE8F8832B79032BE9
:1019D0002ED01E4B01462846D3F80080FFF7CCFFDF
:1019E000044650B13046FEF753FD98F80430052BFD
:1019F00001D1FEF7BDFC0124E5E7B9F1000F03D1E9
:101A00003046FEF745FDDEE798F804304046052BEA
:101A10000CBF05210421C8F80C70FEF7FDFB414600
:101A200005F11000FFF758FB3046FEF731FDE0E707
:101A3000EB6803C883E803000B212846FEF7ECFBA4
:101A4000F2E700BF98040020480400204C04002066
:101A500038B50446FEF714FD074B21461B880546A2
:101A60002380064B1868FFF787FF04462846FEF7D9
:101A70000FFD204638BD00BF480400204C04002064
:101A800008B50F4B53F82130B3B1212202801A79E7
:101A9000032A0BD103C8DA6882E8030018460B2139
:101AA000FEF7BAFB0120074B186008BD0146184637
:101AB000BDE80840FFF760BF4FF0FF30F5E700BF1B
:101AC000980400205004002070B504460D46FEF72F
:101AD000E2FC28B129462046BDE87040FFF7D0BFA0
:101AE000094B1B881BB2AB4204D12046BDE87040B5
:101AF000FFF7AEBFFEF7C4FC29460346012220468D
:101B0000BDE87040FFF74EBF4804002070B50446A2
:101B10000D46FEF7C0FC064628B129462046BDE822
:101B20007040FFF7ADBF0A4B1B881BB2AB4204D11C
:101B30002046BDE87040FFF78BBFFEF7A1FC3246A0
:101B4000034629462046BDE87040FFF72BBF00BF83
:101B5000480400202DE9F0410C4617460546FEF7E3
:101B60008FFC80460B4B05211A880B4B12B253F8A1
:101B700022603046FEF750FB95E80300F4604346D0
:101B800084E80300012239462046BDE8F041FFF712
:101B900009BF00BF480400209804002070B5044627
:101BA0000D46FEF76DFC104BB4F90020064653F8C5
:101BB00022402379052B04D0FEF76AFC4FF0FF305A
:101BC00070BDE36895E8030083E803000B2120461D
:101BD000FEF722FB64793046FEF75AFC2046FEF7FA
:101BE0005BFB0120ECE700BF980400200121FFF718
:101BF0004BBE00000022044B01391B681862C3E988
:101C00000522D961704700BF4C0400200C4B0D4ADF
:101C100010B59A60102200210B4C83F82220DA774D
:101C2000601801313C2980F80023F9D11A6942F08B
:101C300010021A615A6942F400725A6110BD00BF65
:101C400000ED00E00000000800E100E0002103F0EA
:101C5000A1B870B51E46CBB2002115460246084613
:101C600002F014FD044620B92846FFF7EFFF204696
:101C700070BD43681E710560F9E70000536810B538
:101C800014465980136800223BB9904209D220467D
:101C9000BDE810407A2103F07DB899681B680A44BA
:101CA000F2E7234640F202220549012001F076FEC8
:101CB00020B92046BDE81040FFF7C8BF10BD00BFE7
:101CC0000000FFFF2DE9F8430D4612C906460A46FB
:101CD0000023002A3ED15BBAA380A379FF2B03D156
:101CE00000293BD13B23A371E3791BB9002E40D1DE
:101CF0004023E37104F1080710222849384609F00F
:101D0000BFF9814670B904F11808254910224046F0
:101D100009F0B6F9014678BB1022384609F0CAF935
:101D20000123E3752C46206803F042F888B390F94C
:101D300010302060022B03D103680446002BF2D13F
:101D4000294602F032FE002801DA023021D10120BA
:101D5000BDE8F883906812680344BAE70B7C023B45
:101D6000DBB2022BBED80F4AD35CFF2BA371BBD1D1
:101D7000B8E796F8AE30BCE741464A46304602F036
:101D8000AEF901460028CDD01022384609F087F977
:101D9000C8E72846FFF75AFF0020D9E72FC40008FC
:101DA0000FC400082AC3000880B5A0B0102200218B
:101DB00005A809F07FF9B94B08210693B84B10A884
:101DC0001B8844F6C076ADF82030FFF713FF05A955
:101DD000022002F0C1FD40F20523B24FADF80E30F3
:101DE00044F6C37401A8FFF701FFBDF80610A14235
:101DF0002FD8B1423AD240F20223994200F0E88053
:101E00001CD840F201239942ECD1029D4FF0FF31E2
:101E1000284602F0DBFD20B14368B3F9020001F06F
:101E20003AFF6B6880463BB1AA68272A04D91B7821
:101E300003F0F003602B22D028462EE0B1F5017F9D
:101E4000D0D86FF0850303A901A80493FFF7A6FE7D
:101E5000C6E744F6CF7399420CD844F6CB73994247
:101E600004D2A1F59F43453B042BBBD8029800F058
:101E7000E7FDB5E7A1F59F43513B012BF5E7284668
:101E800002F096FF04460028D6D00222282102F054
:101E9000C9FE0023237418B92046FFF7D7FE9FE739
:101EA000D0F8049099F8073023B97421204602F045
:101EB00071FF95E7B9F8041099F8065049BA89B24C
:101EC00009B93B2DE8D1844268D0A36820468B42F3
:101ED00064D902F00DFF09F1180A10227249504628
:101EE00009F0CEF8D8B108227049504609F0C8F878
:101EF00048B199F81830FF2B08D199F8193003F040
:101F00000F03022B02D1B8F1000F56D1504602F058
:101F1000BBF98046B0FA80F040090028BCD1292DD9
:101F200051D03A2D4DD0112D0CBF04230023237422
:101F30002946022002F025FD002801DC3A2D44D17B
:101F40000121204602F014FF4FF00109234640F220
:101F50000122524994F9100001F020FD10B92046E9
:101F6000FFF774FEB9F1000F10D03A2D03D1012113
:101F7000204602F0FDFE234640F2012229460220BF
:101F800001F00CFD10B92046FFF760FE3A2D7FF4FA
:101F900027AF2146404607F0B3FF21E700228368C0
:101FA0001A4490F91030022B02D000680028F6D1B4
:101FB000283A8A428FD2162178E7504602F064F917
:101FC000A8E70323B3E70223B1E74FF00009BDE719
:101FD000029D95F9103001331AD16C68B4F90200F2
:101FE00001F059FE8046284694F8049002F0E0FE85
:101FF000014600283FF420AF02F0F0FC054609F04E
:102000003F0995F91030022B06D0162128464EE7DD
:102010004FF00009C846F4E76868102239461830C6
:1020200009F02EF80028F0D0284602F0C1FE044640
:1020300000283FF401AF45682B7EFF2B38D1B8F163
:10204000000F12D101F01AFE00283FF425AF4046E0
:1020500001F002FE0021224680464B460846FFF76B
:10206000F8FD044600283FF4BBAE21464046FFF78A
:1020700029FE00283FF4B4AE0021224649F0400377
:102080000846FFF7E6FD024600283FF4A9AEB8F97E
:10209000B010B8F89C00FFF7F1FDA1E60000FFFFCB
:1020A000480400202FC400080FC40008FFC3000824
:1020B0001835284602F0E8F81022824622492846C0
:1020C00008F0DEFF10B1BAF1000F17D021465046DC
:1020D000FFF7F8FD00283FF4DFAE204602F095FC44
:1020E00000287FF4D9AE234640F20122174902208E
:1020F00001F054FC00287FF473AECDE609AB224614
:102100004146284600F05CF90028FFF669AEBDF8AC
:102110003C00C0F3041001F0BEFD21460546FFF768
:10212000D1FD00283FF45CAE22464B469DF83E10A0
:102130000DA8FFF78EFD024600283FF451AEB5F919
:10214000B010B5F89C00A6E70FC400080000FFFF20
:102150001FB50A4CB4F9003063B9094A4FF48061E5
:10216000CDE90132074B0422009307480823FEF70C
:10217000C3FF2080B4F9000004B010BDB0150020EA
:102180002DC30008A91D0008B011002008B50221C8
:1021900002F01CFC00B1406808BD00002DE9F843C6
:1021A0000C4D99460C4B0746884628461146144666
:1021B000B3F9006007F00AFE0023A4F80A80C4E91E
:1021C0000039E760268121462846BDE8F84307F03C
:1021D000D3BD00BFCC170020B015002010B50822D9
:1021E0000949044608F04CFF48B12378FF2B08D179
:1021F000607800F00F00831E5842584110BD012046
:10220000FCE70020FAE700BFFFC300087FB50368C2
:102210000446ABB193F83620120711D501461022BF
:1022200068469D8E08F03BFF2046002400F060FECB
:102230002646C5F30415204600F090FF044608B971
:1022400004B070BD20680028F5D0838EC3F304135A
:102250009D42F0D16946043004F0DEFB0028EAD04C
:10226000226884F8346092F83630204623F0400328
:1022700082F8363000F04AFFDDE72DE9F041069C98
:10228000074690461E460D4691B191F8AF30082B97
:102290000ED101461022304608F001FFB5F8B030EB
:1022A0001B0133830023B37601263046BDE8F0815D
:1022B00024B13146204600F0D3FDF5E732462946E9
:1022C000384601F02FF806460028EED17DB1B5F969
:1022D000B0100222384600F05BFD0028E5D0B8F1CE
:1022E000000FE2D07621404602F054FDDDE72146A2
:1022F000EFE7000038B50A4C01210A48FEF740FE1E
:10230000A16929B10D68204607F060FD2946F8E76C
:1023100000F0ECFCBDE838400248FEF761BE00BFAB
:10232000CC170020E817002030B585B0044601F036
:1023300023FD4FF47A73C4F89430012384F89A3063
:10234000002394F8AF2084F89830032A12D1019327
:10235000039305238DF804300DF102030293022349
:102360000822ADF80C302368ADF802201B6901A9E2
:10237000204698470025104984F89950204601F0DE
:102380009BFFA84204DA204601F0FDFC05B030BDF9
:1023900040222046094901F0FDF84FF47A712846A1
:1023A00005F05AF804F16402034644F6C37120466E
:1023B000FFF7F4FEE7E700BFDFC30008FFC3000834
:1023C0002DE9F0430C468DB006460846174699465F
:1023D00001F0D2FC01215148FEF7D2FD8CB3B4F9D3
:1023E000B010304600F0A6FC804600283DD0858E17
:1023F000C5F304153046FFF7F1FE48B945B1204654
:1024000001F0C1FC284601F046FC044601F0B4FC92
:10241000002C7BD0CDF800804B463A462146304612
:10242000FFF72BFF00280CBF6FF0750500253B4818
:10243000FEF7D6FD204601F0A6FC28460DB0BDE80B
:10244000F0832146CDE795F834305A070ED5EB8E50
:10245000DB070BD5291D304604F0F3FA95F835302B
:10246000834203D82B689D8EC2E70546284600F0BC
:1024700075FE05460028E6D13046FFF7AFFE00287E
:10248000B8D103AA3946304600F0A0FE051E34DB61
:102490001022234907A808F0F3FD28B96DBB1022CC
:1024A000314607A808F0FBFD74B1B4F9B020BDF8BF
:1024B0002E309A4202D0204601F065FCB4F9B020DB
:1024C000BDF82E309A4207D0BDF92E0001F0E3FB93
:1024D000044601F051FCBCB1B4F9B01007A800F0FB
:1024E00029FC4B4600903A46214607A8FFF7C5FE57
:1024F000002808BF6FF0750599E77221384602F091
:1025000049FC6FF0710592E72146E7E776213846EE
:1025100002F040FC6FF0750589E700BFE817002066
:102520002FC400082DE9F04F154687B01F4604461A
:102530000E4601F021FC0121B648FEF721FD2B7863
:10254000872B00F03981882B00F0F481862B40F036
:102550004E8106F108094846FFF740FE002800F0CA
:102560004681F379FF2B40F042816B78002B40F0DD
:102570003E810F2F40F23B81A7F1100305F11008B7
:1025800042469A460293BAF1000F45D1EF88B4F95A
:10259000B010BBB2002B4BD0484600F07BFC7FBA9A
:1025A000BFB28146002800F022814FF47A735F4366
:1025B000021D3B4644F6CD71FFF7F0FD2B790BB1C0
:1025C00084F8AE30EB6813B11BBAC4F89430B9F19B
:1025D000000F0FD0237C13F0EF0F03D004F1120093
:1025E00000F0D2FE637C13F0EF0F03D004F1220061
:1025F00000F0CAFE029B4BBB04F1640529468648E5
:1026000007F0E4FB2A4644F6C3712046BB0803EBFF
:102610004303FFF7C3FDEAE05745C0F0E880537875
:10262000002B00F0E480DB00AAEB030A1A44AAE7BF
:10263000484600F08DFC814628B1FFF7E7FD4FF0DA
:10264000FF37D146BAE74FF0FF37B7E798F80030C9
:10265000032B2DD009D8012B13D098F80130029A02
:10266000DB00D21A02929844C4E7052B10D0222B2B
:10267000F3D14146284600F06DFF874228BF074648
:10268000EBE743462A463146204600F0B8FAE4E735
:1026900098F80130012BE0D12B78862BDDD1D8F8CA
:1026A00004301BBAB3F5A06FD7D3A4F89C30D4E79D
:1026B00098F80130D8F80490D8F808A0042B99FABB
:1026C00089F99AFA8AFA05D04FF0FF394F4528BFA9
:1026D0004F46C2E72B78862BF6D108F1100B5846EF
:1026E000FFF77CFD0028EFD1D145EDD398F80330FA
:1026F0005B0605D598F802205946204600F04AFFAF
:1027000098F90330002BDFDA98F802300393D8F8F9
:102710000430E3B9994613E099F8343058070FD5DF
:1027200099F83530039A93420AD1594609F10400C9
:1027300004F087F9039B834202D8484600F080FDED
:10274000484600F00BFD81460028E5D1BCE7B9F111
:10275000FF3F08D0314B994596BF4FF47A736FF025
:10276000010903FB09F9BAF1FF3F08D02B4B9A4549
:1027700096BF4FF47A736FF0010A03FB0AFAB4F9BB
:10278000B000CDF800A04B46039A594600F060FD1A
:10279000002899D098F80320110642BFC38E43F059
:1027A0000103C386530642BFC38E43F00203C386B0
:1027B000D14528BFD14689E7F379FF2B17D16B7834
:1027C000ABB9172F13D92B7AFF2B10D006F1080BBA
:1027D00010221349584608F053FC88B105F1080A45
:1027E0005146204601F06BFC031E02931CDA094897
:1027F000FEF7F6FB204601F0C6FA07B0BDE8F08F01
:102800000D22084906F1180008F03AFC0028E5D02E
:10281000EDE700BFE8170020CC1700203789410002
:102820002FC400081FC40008A7F1180805F11809F3
:102830004946434673B9102265495846039308F048
:102840001FFC039B78B900935A462146504600F07E
:10285000CDFFCCE79F42CAD34A78002AC7D0D20026
:102860009B1A1144E6E7D4F8A030DF0705D4032211
:10287000B4F9B010584600F08BFAB8F1000F1BD134
:10288000029A337E2244127C95064CD5FF2B2DD123
:1028900004F1A40194F8AC2004A808F000FC94F81A
:1028A000AC1019B3424604A800F04CFF0546A0B98D
:1028B000414602F06FFA9AE799F80030012B05D1F2
:1028C0004B462A463146204600F099F999F80130E6
:1028D000DB00A8EB03089944CFE740212A46504685
:1028E00000F0DBFE014620B92846E2E760214546BC
:1028F000F4E7B4F9B010504600F01CFA0546002881
:102900003FF475AF90F83630D8077FF570AF4FF4CD
:102910007A71002004F0A0FD05F12402034644F67C
:10292000C271284675E6A3F1FF014B42CDF8008045
:102930004B4189E7F379FF2B7FF459AF6B78002B7C
:102940007FF455AF172F7FF652AF2B7AFF2B3FF452
:102950004EAF337EFF2B03D12B795A063FF547AF9D
:10296000A7F1180905F1180841464A462ABBB4F9EF
:10297000B01005F1080000F0DDF9074600283FF42B
:1029800036AF90F83630DB077FF531AFB9F1000F85
:102990003FF42DAF98F80030212B07D1CDE9008707
:1029A00043462A463146204600F04EFD98F8013055
:1029B000DB00A9EB03099844E8E79742FFF417AF5F
:1029C0004B78002B3FF413AFDB00D21A1944CDE74C
:1029D0002FC4000838B5044601F0CEF944F6C3719F
:1029E000204600F087FC94F8983042F21075022BD4
:1029F0000AD94FF47A62033B02FA03F31D444EF600
:102A000060239D4228BF1D46A84212D90B4920468B
:102A100000F054FF94F8983004F16402092B9CBF35
:102A2000013384F8983044F6C3712B462046FFF7F3
:102A3000B5FB2046BDE8384001F0A5B9EFC300085A
:102A4000F8B50D46044601214F48FEF799FAA5F561
:102A50009F4142390D2914D8DFE801F007181313FC
:102A60001313131313131C8E1392234640F20222E6
:102A70004649022000F092FF18B90921204602F0D1
:102A800089F9BDE8F8404048FEF7AABA2046FFF7AA
:102A9000A1FFF6E72368988EC0F3041001F0FBF85D
:102AA0000546FEF753F900234FF47A7208F03EF919
:102AB0000646284601F060F9A36B9E422ED304F12E
:102AC0001401334805F11206271D07F07FF9394636
:102AD000304603F0B6FF94F83530834203D83146D0
:102AE000284601F03FFC05F122063946304603F046
:102AF000A8FF94F83530834203D83146284601F0C8
:102B000031FC94F83430204623F0040384F8343048
:102B100000F0FCFA284601F036F9B2E7E36B9E427A
:102B2000F8D3271D394605F1120003F08AFF94F807
:102B300035303946834298BF2B7C05F122009EBF79
:102B400023F01F0343F008032B7403F07AFF94F87B
:102B5000353004F11402834298BF6B7C44F6CC718B
:102B60009EBF23F01F0343F008036B74A36B204642
:102B70009B1BFFF713FBCDE72046FFF747FB80E7E2
:102B8000204600F001FC7CE7E81700200000FFFF72
:102B9000CC1700202DE9FF41154607460C461E467E
:102BA00000F0ECF915B30068B4F9B020838EC3F3DC
:102BB00004139A421AD13146043003F02DFFA8B114
:102BC000606803210368D3F8108008230DEB03022B
:102BD000C04780B2082806D1002302AA0F21184658
:102BE00003F08EFC18B904B0BDE8F081002000901D
:102BF00033462A462146384600F0A8FDF3E72DE982
:102C0000F04101F108070546B0F9B0103846984682
:102C1000164600F08FF841460446284601F024FD90
:102C200000281EDB1CB194F83630DA070ED40322DC
:102C3000B5F9B010384600F0ABF8044688B13378E7
:102C4000872B03D1838E23F00803838694F83630D4
:102C5000DB0706D53378862B05D1A38E43F0080316
:102C6000A386BDE8F081872BFBD0A38E23F0080359
:102C7000F6E730F9081FFEF703BF000038B5054638
:102C800018B9012000F0010038BD0C1D10220549C3
:102C9000204608F0F5F90028F3D02146284603F035
:102CA000BBFEEFE72FC4000808B590F8361021B935
:102CB000382208F0FFF9012008BD0020FCE770B5BC
:102CC000064610460C461546FFF7EEFF26B11022C9
:102CD0003146281D08F0E3F9A98E240121F4F8718A
:102CE00004F4F8742143A98670BD0000014902482C
:102CF00007F090B8732C0008CC17002070B50C4C6E
:102D00000646A38E0D46C3F3041399420AD1214609
:102D1000FFF7B4FF30B13046054A2946FFF7CFFF31
:102D2000034870BD94F83630002BF4D00020F8E74B
:102D3000EC17002008B50A4B93F836205AB19B8E49
:102D4000C3F3041313B109B1994204D101460548F4
:102D500003F062FE08B9002008BD0148FCE700BF8F
:102D6000EC170020F017002010B5044690F836301C
:102D700000F1240123F0010380F83630034807F006
:102D800025F82046BDE81040FFF78EBFCC17002085
:102D90002DE9F8438046894602F00707FFF7AEFFAA
:102DA000054600283CD12D4E3368FBB11C68A34278
:102DB00018D1306094F8363033F0010319D0002375
:102DC0003268002A2AD012682260326814603460A7
:102DD000002B40D154B12268944216BF136833606F
:102DE000236003E022681A60002CE3D12846BDE886
:102DF000F883A28E02F4C062002AE1D12046FFF7D8
:102E0000B3FF224649464046FFF759FFA38E1F43B2
:102E10000123A78684F836302346D1E72460D6E71D
:102E200090F83630DA0708D4828E43F0010322F09E
:102E300007021743878680F836302B68002BD5D1E0
:102E4000064B1A682AB112682A601A6815601D605C
:102E5000CCE72D60FBE71D46C8E700BFC817002080
:102E600038B50C460546011D1022204608F017F91A
:102E7000AB8E2383A88EC0F3041000F00CFF04F186
:102E8000100205F10C0101F0DCFB0028A8BFA076C0
:102E900038BD0000F8B5154C074625680E46E5B16B
:102EA000AB8EC3F3041399421DD1291D03F0B4FD69
:102EB000C8B195F8363043F0080385F8363020461F
:102EC000F8BD31463846FFF7FAFE226892F83630F0
:102ED00043F0080382F83630F1E7FFF70FFF0246B0
:102EE00020600028EDD10020EAE700BFB4150020E3
:102EF00010B50446006860B190F8363023F008033E
:102F000080F83630FFF7D0FE14220021204608F06A
:102F1000D1F8034B1A68A24204BF00221A6010BD08
:102F20002418002028B11430074A904203D300200F
:102F300070470648F8E703681BB193F83630002B5A
:102F4000F6D11430F1E700BFC8150020B4150020F9
:102F500010B5094C236863B19A8EC2F304129142F2
:102F600007D1191D03F058FD002814BF204600208A
:102F700010BD0020FCE700BFB415002010B5124CB6
:102F8000216831B10B689B8E03F00703013B012BD5
:102F90000DD80020FFF7C6FF58B90846FFF7C2FF5B
:102FA00001B110B90020FFF7BDFF2060216808467D
:102FB00010BD03689B8E03F00703013B012BE9D989
:102FC00020600146F3E700BF2418002038B50D4605
:102FD000044610220021284608F06CF80023104A0D
:102FE00085F820301268A24209D1B4B123689B8EC3
:102FF00003F00703013B012B94BF002301231022A0
:1030000085F821302168A818043108F048F82368B1
:103010009B8EC3F304136B8438BD2346EFE700BFD8
:10302000241800202DE9F74F0025804689461F46C9
:103030002C46344E019296F83120A6F1040BBA4288
:1030400056F804AC2AD1BAF1000F57D0BAF83420A0
:10305000C2F30412914521D151464046FFF70EFEBE
:10306000E0B10199304603F0ECFCB84216D3B8F158
:10307000000F05D0102241460AF1040008F00FF8B5
:103080005C46214BAD015A5992F8363043F040036B
:1030900082F83630204603B0BDE8F08F1CB9BAF193
:1030A000000F08BF5C460135082D06F14006C2D16D
:1030B000002CEFD049464046FFF720FE0546206031
:1030C00030B901464022204607F0F4FF2C46E1E7E4
:1030D000024649464046FFF7F2FD204650F8042BD1
:1030E000FFB292F83630019943F0400382F836304F
:1030F0003A4603F0C9FC84F83570CBE7002C08BFD2
:103100005C46D0E7CC150020C815002038B5044631
:103110000068F0B100230F49CA18944202D05D58EC
:10312000A8420CD04033B3F5007FF5D190F836308B
:1031300023F0400380F83630FFF7B6FD02E0064B7F
:103140009A42F3D22046BDE838404022002107F0E1
:10315000B1BF38BDC8150020C817002028B14030C5
:10316000064B984203D3002070470548F8E790F8D3
:103170003420002AF8D14030F3E700BFC817002000
:10318000C815002070B50C460546011D10222046CA
:1031900007F085FF002195F8353084F8211084F878
:1031A00020302E6804F11000B38E1022C3F30413F4
:1031B000638495F83430042B03D1BDE8704007F0E8
:1031C00079BF311DBDE8704007F069BF2DE9F84FA8
:1031D00000248246904625462646DFF8609009F195
:1031E000040B04EB090797F8343063B151460BEB3D
:1031F000040003F026FCB04205D997F8353083422D
:103200009CBF06463D464034B4F5007FE9D11DB170
:1032100095F83430042B0CD1FFF7B0FE18B945B93E
:103220006FF0710003E04146FFF7D0FE0020BDE8DB
:10323000F88F41462846FFF7A5FFF7E7C81500209D
:1032400090F8343023F0040380F83430FFF75EBF89
:103250002DE9F8431E4613460A4601460020089D04
:10326000FFF7E0FE044600283AD090F83430771C8F
:1032700043F0040380F8343001D1681C33D0FDF7EB
:1032800065FD4FF47A72002307F050FD691C074674
:103290001DD0164B04F1140841461548B3F90090AF
:1032A00006F094FD0023C4E9053544F6CC7324628E
:1032B000E383A4F81C9041460D4806F05DFDAA1C6E
:1032C00005D0EB19013301D107B101353D44F31CA1
:1032D00004D8F319013308BF01363E44C4E90E6532
:1032E0002046BDE8F8832E46F8E700BFB015002061
:1032F000CC170020002210B5094B9B691BB94FF079
:10330000FF32104610BD5C6822445C898C4204D1B7
:103310000028F6D0DC688442F3D01B68EEE700BFDB
:10332000CC17002070B5054614460E4609B900209A
:1033300070BD0822134907F0A3FE38B12B78FF2B8C
:10334000F5D16B7803F00F03022BF0D104F11002DA
:1033500005F10801304601F074F9C0B20028E6D04A
:10336000A07610222946204607F099FEB6F9B03023
:1033700001201B0103F4F87343F4806343F0060358
:103380002383D5E7FFC300082DE9F843054600F085
:103390007BFF0446FFF7F2FD00284CD0002C4CD0F8
:1033A00003682A46043318462146FFF7F3FB2946F3
:1033B000204600F084FE21180B7C064603F01F0215
:1033C000102A29D003F00702013A012A2BD8013331
:1033D000D4F894700B74751C2D0105F10208643546
:1033E0002544174B29461748B3F9009006F0EEFC28
:1033F0000023A04404EB0614C4E91D3744F6CF7340
:10340000C4F88080A4F87E30A4F87C902946BDE8FA
:10341000F8430C4806F0B0BC4EF66027DBE72946BF
:10342000204600F04CFE002384F898302046BDE88A
:10343000F843FFF7CFBA002CF1D1BDE8F88300BF05
:10344000B0150020CC1700202DE9F0471F465B780F
:103450000446022B0E4602D00420BDE8F087137804
:10346000882BF9D190F8AC20082AF5D107F1080192
:10347000A43007F005FE05460028EDD1BB78012BEE
:1034800047D003D3022B4AD0B878E6E7FD8806F18F
:10349000180120466DBA00F012FEADB2012D18BF22
:1034A0004EF6602804EB0002137C18BF08FB05F8F9
:1034B00000F101054FEA051523F01F0343F0100347
:1034C00005F1020905F16405254413741F4B18BF6B
:1034D000A8F56A48064629461D48B3F900A014BF5E
:1034E000A8F1600847F2305806F070FC0023A144B0
:1034F00004EB0614C4E91D3844F6CF73C4F8809079
:10350000A4F87E30A4F87CA02946114806F034FCCB
:10351000BAE706F11801204600F024FFB4E7B4F939
:10352000B01006F10800FFF713FDFFF7E1FC284695
:10353000FFF7F8FC28B984F898002046FFF74AFA0C
:10354000A2E706F11800FFF71FFF9DE7B015002066
:10355000CC17002013B54B78022B18D18A78402A5B
:1035600015D80378862B12D1C888083140BA84B2A6
:1035700011F8050CC0F30013009300F00F00234670
:1035800001F0FEFD4EF66020604302B010BD4FF02A
:10359000FF30FAE7F0B5044685B00D461746002126
:1035A0001022684607F086FDD4F8A030DB0707D567
:1035B00002AB94F8AC2004F1A401204600F0FCFF1B
:1035C0003A462946684603F05FFA6946204600F00D
:1035D00076FD061E25DA07233A466946204600F0A6
:1035E00003FD061E1BDB012708220F49284607F0B2
:1035F00047FD38B12B78FF2B0BD16B7803F00F030D
:10360000022B06D1A219137C23F01F0343F01003F1
:10361000137427B104EB06101230FFF7B5FE05B0A6
:10362000F0BD0027E0E700BFFFC3000870B5064605
:10363000184606F037FD044678B1FF224368DA7178
:1036400000231A461946184601F020F8054630B9FD
:103650002146204601F0C2F92C46204670BDB6F93D
:10366000002043685A800460F6E710B5182304462A
:1036700000220846872106F085FC68B100224368D5
:103680001A715A719A71DA71216862689960DA6008
:10369000A168E26819615A6110BD38B504460D464B
:1036A000104618230022882106F06CFC78B1002215
:1036B000436825F01F051D71DA719A715A712168EE
:1036C00062689960DA60A168E26819615A6138BD80
:1036D00008B500220823852106F054FC28B10022F9
:1036E00043681A715A719A71DA7108BD002310B5D6
:1036F00004461046CA1D02F0F802194601F078FA95
:1037000020B1426814708368DB08537010BDF8B5AF
:1037100007460E4618460231FFF7E8FF044660B13F
:10372000456882680235023A0021284607F0C2FC4B
:1037300032463946284607F0B2FC2046F8BD012340
:10374000FFF7E5BF0223FFF7E2BF00002DE9F341D9
:103750001646074608460C469846089D00F00CFBA6
:1037600036B932463946204600F0B9FC0646A8B1C3
:1037700010221C49304607F083FC78B104F1A40103
:1037800094F8AC20684607F08AFC94F8AC1029B194
:103790002A466846FFF7D3FFF0B10546384629466A
:1037A000FFF763FF0746B8B103464246314604F1CE
:1037B000B000FFF73BFF054668B1034640F2022226
:1037C0000949022000F0EAF830B1204600F0DBFAA7
:1037D00002B0BDE8F0813D460021284601F0DAFA4A
:1037E000F3E700BF2FC400080000FFFF2DE9F047FA
:1037F0000C46804686B0084691469A460E9D00F0DB
:10380000BBFA4146204600F05AFC071E4ADB102254
:103810002749484607F034FC10220646A0B925493E
:1038200002A807F03CFC04F1A40194F8AC2068461F
:1038300007F035FC94F8AC1071B12A466846FFF7E2
:1038400081FF78B3054607E0494602A807F027FC48
:103850004026BAF1000FE6D12DB127443B7C9B06F0
:1038600048BF46F0200631462A464046FFF715FF7E
:103870000646B8B1034602AA002104F1B000FFF7E2
:10388000D5FE054668B1034640F202220A490220ED
:1038900000F084F830B1204600F075FA06B0BDE8BB
:1038A000F08735460021284601F074FAF3E700BF9F
:1038B0002FC40008DFC300080000FFFF2DE9F3411B
:1038C000224E0546002918BF0E4600F055FA002288
:1038D0003146284600F003FC804698B305F1A40168
:1038E00095F8AC20684607F0DAFB95F8AC1051B1BA
:1038F00000226846FFF723FF044628B9002120462E
:1039000001F048FA18E00C462046FFF7E1FE0746B2
:103910000028F3D003463246414605F1B000FFF7D8
:1039200085FE044680B1034640F202220849022087
:1039300000F034F80028E1D0284600F024FA02B064
:10394000BDE8F0810446DFE73C46D7E7EFC3000857
:103950000000FFFF00B589B006930A9B8DF8141094
:10396000ADF81C30BDF82C30ADF81620ADF806309F
:10397000024605AB03A901A80293FEF7EBF80498F1
:1039800009B05DF804FB07B5019101466846ADF842
:103990000220FEF7BBF803B05DF804FB2DE9F3410C
:1039A0000446884617461D4600F0EBFF064648B120
:1039B0004146204600F0E0FF711E0446284601F013
:1039C000D7F91CB9304602B0BDE8F081237A33B193
:1039D000012B11D00021284601F0DCF907E03A461E
:1039E0002946B4F90C00FFF7CEFF0028F2DD20468F
:1039F00000F0D5FF0446E4E700226946E068ADF830
:103A00000270019506F0CEF8EFE70000036810B4ED
:103A10005C69034AA44601231C2110BC604700BF17
:103A20007BC3000870B54568044600F07DFD2B6837
:103A300001461E6904F1A40208232846B04710F18C
:103A4000860F09D0D4F8A030002843F00103C4F851
:103A5000A030C8BF84F8AC0070BD000010B50822CB
:103A60000949044607F00CFB48B12378FF2B08D125
:103A7000607800F00F00831E5842584110BD0120AD
:103A8000FCE70020FAE700BFFFC300082DE9F04182
:103A9000047C06460F4690466CB332BB06F1120515
:103AA0003946284602F0CDFF4028044603D8284670
:103AB000FFF7D4FF10BB0025737C9BB1B8F1000F5A
:103AC00005D09A060ED498F800309B070AD5223606
:103AD0003946304602F0B5FF4028074610D9A742C4
:103AE00028BF01252846BDE8F081A10606D4147838
:103AF00014F00104D2D14FF0FF35DDE70024FAE7DE
:103B00003046FFF7ABFF0028E9D0EBE7A0F1300229
:103B10000346D0B2092802D8114608467047A3F1DF
:103B20004102052A02D8A3F13701F6E7A3F16102A9
:103B3000052A98BFA3F15701EFE74FF6C06203884B
:103B40005BBA23F03F031B041B0C93420AD003789B
:103B5000FF2B09D1437803F00F03052B14BF0E2070
:103B600005207047052070470E20704713B5806808
:103B700091B941F23423ADF800100190B0F9B010C2
:103B80006846ADF80230FDF79FFF002802DC0E48C2
:103B900007F00CFB02B010BD0229FBD103689B6843
:103BA000984704460028F5D00346084940F2012210
:103BB00090F91000FFF7F2FE01460028EAD12046F6
:103BC00001F0E8F8E6E700BF32C300080000FFFF9D
:103BD000F8B50F46044615460E491022384607F040
:103BE0004FFA98B15DB1032604F13205002439463D
:103BF00005EB041002F010FF28B12046F8BD04F1D7
:103C000012050226F2E70134A642F0D14FF0FF3050
:103C1000F4E700BF2FC40008F0B585B00A9D0C4C36
:103C2000D4E90067AF4210D0002E4FF0000618BF55
:103C30003446C4E902660B9EC4E90065CDE9014340
:103C4000044B00930823FDF757FA204605B0F0BD5A
:103C500028180020953D000828B1B430054B984243
:103C600003D3002070470448F8E70268002AF9D11E
:103C7000B430F4E7DC1800202818002000210846A2
:103C800008B5FFF7E9FF08B9084608BD0368002B2F
:103C9000F7D00131F5E70146002008B5FFF7DCFF5A
:103CA00018B1B0F9B0308B42F8D108BD2DE9F84316
:103CB000002480460F4615461646147001F1FF3960
:103CC000BC4202D12846BDE8F88318F804103046FB
:103CD00006F0AAF8A14514BF3A2300233044461C3D
:103CE00003700134ECE72DE9F84F0F46804618B910
:103CF00000252846BDE8F88F0378002BF8D003464E
:103D00001E4675780133002DFAD13C464FF001096B
:103D10004FF0FF313078FFF7F9FEB0F1000B06F1FC
:103D2000FF3A15DAB9F1000FE2D14FF00109C245AF
:103D30000CD2B9F1000FDBD1013CA742D9D22378D4
:103D40003A7804F8012907F8013BF6E75646DFE721
:103D5000D0450FD8002116F8010CA6F1020AFFF792
:103D6000D5FE4BEA001B84F800B0013501344FF05A
:103D70000009DCE70020F4E720B1036813B1083044
:103D800005F0EEBE704720B1036813B1083005F0AE
:103D9000EABE70472DE9F04140F2052300260446B3
:103DA00094B0CDE90066ADF80230FFF7E5FF3B4B7C
:103DB00008211B8804A8A4F8B0306568FDF71AFF35
:103DC000374B2846C5E901342B689B689847011E8C
:103DD00057DB2846FFF71AFE606802AA036827210E
:103DE0001E690223B047BDF80830204684F8AF3082
:103DF00000F0B2FB2046FFF715FE4023204684F872
:103E0000AE30FEF791FA23681B680BB12046984745
:103E10002046FFF7B8FF40F2032641F2342740F274
:103E2000022802A8FDF7E2FEBDF80A30B3421AD01C
:103E3000B3F5017F09D243450FD023685B69002B9E
:103E4000EFD002A920469847EBE717D0BB42F4D148
:103E50002B682846DB689847E3E7236803995B688B
:103E600020469847DDE723681B6903992046984759
:103E70006946019002A8FDF791FED2E72368DB684E
:103E8000F3E7084807F01EF930462660A4F8B06052
:103E90006660C5E9016614B0BDE8F0814804002001
:103EA0006D3B000857C300082DE9F0470E46054654
:103EB000FFF762FF33780B2B4AD00BD8082B78D052
:103EC000092B29D0072B0AD1736895F8AE201A70F8
:103ED00001241BE0112B7DD00AD80C2B4BD0686835
:103EE0007268036831781C693389A04704460DE085
:103EF0003F2B08D0402BF2D1D5F8A0307268C3F325
:103F000000231370E4E7012473681C702846FFF750
:103F10003AFF2046BDE8F08734897768002CF5D059
:103F20002C7C3CB13846102205F1120107F0B7F89D
:103F30001024103733899C42E8DA6B7C002BE5D0E3
:103F4000102205F12201384607F0A9F81034DDE708
:103F50000024726805F1100305F112003189A142B5
:103F6000D4DD8342D2D013F8011B0029F6D002F829
:103F7000011B0134F2E70024D6F80480DFF864A0C6
:103F800005F1320705F162093389A342BEDDB94567
:103F9000BCD010225146384607F072F838B140467E
:103FA0001022394607F07BF8103408F1100810375A
:103FB000EAE7D5F8A0207368D20790D595F8AC2031
:103FC00005F1A401284600F0F7FA10F1860F044627
:103FD00085D09BE77488022C81D1B5F89C2073684A
:103FE0001A8093E72FC400082DE9F0471E460546C6
:103FF0000F468AB09146FFF7BFFE06F01F03072B5E
:1040000008BF06F0F806394605F1120008BF46F071
:10401000010602F001FDB0B92C7C3946003405F1EF
:10402000220018BF012402F0F7FC6442804680B9E8
:104030008CB16B7CCBB32846FFF7A5FE6FF00B006D
:104040000AB0BDE8F08700242846FFF79CFE204612
:10405000F6E70124F8E70446601C05EB040A05EBCB
:1040600000108AF8106010223946023007F017F865
:104070009AF8103003F01F03102BE5D100230293B0
:1040800003AA02A9B5F9B00006F096F8064670B981
:10409000B8F1000FD8D14FF0FF33B5F9B00000935D
:1040A0004A46394606F028F8CEE70124D4E73946D7
:1040B00003A802F0C6FC484528BFB046E0E738B583
:1040C00004460D46FFF758FE294600222046FFF71A
:1040D0007FFD05462046FFF756FE284638BD2DE9F0
:1040E000F74F05468846144600210122684606F02F
:1040F000E1FF2846FFF740FE2B7C63B94FF0FF3706
:104100006B7CD3B93FB300242846FFF73CFE204622
:1041100003B0BDE8F08F5907F0D13CB99DF80030ED
:10412000002743F001038DF80030E9E705F11200A4
:10413000FFF794FC0028F1D1E0E75A07E2D1002C08
:1041400040F086809DF8003043F002038DF8003087
:104150007B1C5F425F410222002101A806F0AAFFFA
:104160004046FFF77BFC00287AD14046FFF7E5FC8C
:1041700081460026334605F1020B01229DF800100E
:1041800003F1010A02FA03F3194231D00BEB0A14CE
:104190004146204602F040FC002852D12046FFF75D
:1041A0005DFC00285FD12046FFF7C7FC81455CD14C
:1041B00001AB03EB0A0111F8013C0433DBB2B3425B
:1041C00088BF042601F8013C05EB0A03DB7B03F002
:1041D0001F03082B0CD101AB03EB0A0111F8013CC2
:1041E0000133DBB29E4238BF1E4601F8013CF6B2F5
:1041F000BAF1020F4FF00103BFD11A460021684601
:1042000006F058FF9DF804306A46B34208BF9DF897
:104210000030414604BF43F001038DF800309DF8A3
:1042200005302846B34202BF9DF8003043F0020338
:104230008DF80030FFF72AFC041E05DB05EB0414A3
:104240001234002C7FF460AF05EB071412345BE7E7
:1042500005F12200FFF702FC00287FF473AF51E75D
:104260004FF0020985E70220A0E7ADD901AB03EBCF
:104270000A0111F8013C0233DBB29E4238BF1E46F0
:1042800001F8013CF6B29FE738B505460024204608
:10429000FFF7E2FC044660B100222946FFF798FCD4
:1042A000002806DA012229462046FFF791FC002863
:1042B000EDDB204638BD00002DE9F8430546884671
:1042C0000026FFF759FD4FF0FF34DFF8649005F149
:1042D00032074146384602F09FFB28B12846FFF7D7
:1042E00052FD3046BDE8F883621C07D110224946D2
:1042F000384606F0C5FE002808BF34460136032EB6
:1043000007F11007E5D1631C05D12846FFF73BFDF7
:104310006FF00B00E6E705EB041010224146323047
:1043200006F0BDFE2846FFF72EFD2046DAE700BF67
:104330002FC4000838B504460D46FFF71DFD0122C5
:1043400029462046FFF744FC002806DB04EB00105A
:1043500010220021323006F0ADFE2046BDE8384084
:10436000FFF711BD2DE9F04F4FF0000840F2FF2795
:104370004FF08075FF264B7B8BB08DF81530CB89C5
:1043800004468A46CDE9027804958DF81460ADF8AC
:1043900016304FF00109FFF7EFFC424604F1120B13
:1043A000531C51465846009302F036FBD8B1002109
:1043B000009B5846E218D173102206F07BFE009B4A
:1043C0000BF1100B022B4FF00102E9D1B9F1000FF4
:1043D00003D002A92046FFF7ADFF2046FFF7D3FC2C
:1043E0000BB0BDE8F08F9BF80D1001908DF82510F3
:1043F000BBF80E1006A8ADF8261002A9CDE9067884
:1044000008958DF8246002F007FB019A002818BF78
:104410009146D4E770B50E460546FFF7ADFC3378FC
:104420000C2B4FD00BD8092B35D00A2B45D0072B9E
:104430000AD173681B7885F8AE30012438E0112B5F
:104440004AD019D80D2B42D0686872680368317859
:104450005C693389A047041E2ADD3378022B27D3F9
:10446000052B5DD9192B23D173681B78052B1FD120
:104470006868FFF7CBFA1BE01A2B3AD0402BE3D148
:104480007268D5F8A0301478012C2DD143F48073D4
:10449000C5F8A0300CE07288716802F0E00343F0C8
:1044A0001003120A2846FFF79FFD041E34DB102478
:1044B0002846FFF768FC204670BD71682846FFF764
:1044C00051FFF4E771682846FFF7F6FEEDE77168E3
:1044D0002846FFF72FFFEAE77488022CB4D17368EF
:1044E0001B88A5F89C30E3E723F48073C5F8A0305F
:1044F000A3E77268D5F8A0301178686801290CBF6D
:1045000043F4803323F48033C5F8A03003681A21C4
:104510005C693389A04790E714F1860FC8D193E70F
:104520002846FFF77FFAC3E713B590F8AF30033B97
:10453000012B0FD840680DF10602036805211C69A4
:104540000223A047BDF80630082B14BF0220032029
:1045500002B010BD0220FBE737B50446406803688F
:104560001D6994F8AF30072B03D0092B07D0032B1C
:1045700014D1D4F8A03043F48073C4F8A0300223DF
:104580000DF106021121A8474FF4A063A4F89C3056
:10459000BDF8063084F8AD3003B030BD02230DF114
:1045A00006021121A8470028B4BF4FF6FF73BDF8DB
:1045B0000630A4F89C30EFE710B5D0F8A040E4072F
:1045C00039D590F8AF00032835D10020042A58705F
:1045D00018701DD0082A03D0022A2FD102461EE0EF
:1045E0000A7882F002021A704A785A708A789A70B1
:1045F000CA78DA700A791A714A795A718A799A7185
:10460000CA79002B14BF08206FF01500DA7110BDB5
:104610000A7882F002021A704A785A700222FF2445
:104620000020DC70FE2498701C715871885C114465
:1046300098714A78E5E76FF08500E8E76FF01500BC
:10464000E5E710B590F8AF301446032B09D10822E6
:10465000204606F024FD0820237883F0020323700F
:1046600010BD6FF08500FBE790F8AF30032B08D149
:104670004B78012B08D0022B0CBF08206FF01500DF
:1046800070476FF085007047022070472DE9F041B8
:10469000174603F108020A440E46002180461C46D4
:1046A00008464FF0FF3300F0A3FA0546E0B10023BF
:1046B00040680670447043808380C380B8F1000F67
:1046C00005D026B132464146083006F0E8FC5FB11D
:1046D00054B168684378A34206D103782246083370
:1046E0003946184406F0DBFC2846BDE8F08100009E
:1046F000F0B5456891B02B7FEA8903F02803ADF847
:1047000018200E4621B96FF01504204611B0F0BDF7
:1047100091F9102001323DD149680F79FA060A78E3
:1047200054BF43F0010443F0110417F0C00F03BF5E
:1047300002F108035B1891F801C04FF0020C18BF9A
:10474000164B12B30831A87E471CAF76CDE9034063
:10475000BDF818000AAFADF80800ADF80400CDF8B8
:1047600000C0384602F00CF80028CCD0336809901D
:10477000CDE907372B6807A91B6828469847002111
:104780000446304600F006FBBFE790F8AC2000F18D
:10479000A401D8E76FF04C04B7E700BFDDC3000801
:1047A0002DE9F043456887B02B6881465C6800239B
:1047B00028461A461946A0470228064640F3A0801C
:1047C000002302461946184600F012FA2B680446E8
:1047D0005F6840B90346014632462846B84720463E
:1047E00007B0BDE8F083416801AB32462846B847C0
:1047F000B0F1000805DC0021204600F0CBFA0024CF
:10480000EDE7D9F8A02012F480371FD000231A4614
:1048100019461846FFF73AFF05460028EBD04368D3
:104820009DF806205A71BDF80420DA80B9F8B0204E
:104830005A800023036023461A682AB91D60414646
:10484000204600F055FACAE71346F5E7606802F023
:1048500029F80028CFD00146A8EB00083A462046A8
:1048600000F0E0F906460028C5D047686A4604A96A
:10487000384602F080F881466A4602A9384602F0BE
:1048800033F8B9F1000FB6DB0028B4DBC1B25FFA30
:1048900089F304AA02A8FFF7F9FE07460028AAD068
:1048A000B9F1020F43680BD19DF81020FF2A07D100
:1048B0009DF81120FF2A03D11A7962F07F021A7144
:1048C0009DF8062018215A71BDF804202846DA8088
:1048D000114A12885A802B6804F11002D3F8109004
:1048E0000123C8473146204600F078F800233B609A
:1048F000234600E013461A68002AFBD11F609EE79A
:1049000000287FF77CAF2B6802465C6800232846AE
:104910001946A04773E700BF4804002013B5044CB4
:104920000194049C0094FFF777F902B010BD00BF1A
:104930007CC3000858B9CBB2042B00D97047054B93
:1049400053F8210000B9704743689342FBD00068D8
:10495000F8E700BFDC180020C3B2042B9FBF054B53
:1049600053F820200A6043F8201094BF00206FF015
:1049700015007047DC1800200A4601460020FFF7AA
:10498000D9BF70B5054600200E460446324629467A
:10499000FFF7D0FF08B9204670BD0134F6E718B123
:1049A00042680021FFF7C6BF704761B190F910302F
:1049B000032B04D0042B04D06FF00100704705F0E6
:1049C000F1BA01F093BE6FF01500704718B190F97D
:1049D00010308B4200D170470068F7E710B50446ED
:1049E0008C42084606D124680021016000F0D2F90B
:1049F000204610BD23461A68002AF5D0824202D113
:104A000002681A60F0E71346F5E7F8B5002106469C
:104A1000044687687CB98F420BD0304600F068F9B5
:104A2000044630B9356855B92946306800F0B2F906
:104A300035602046F8BDA36824681944EAE7706829
:104A4000D5E90112384406F02AFBAB682D681F44F3
:104A5000E9E7000030B50024134A0730136820F05E
:104A60000700BBB1596881420ED3091A07290ED934
:104A70000E4D1844451BB5F5C05F0FD900241460D6
:104A80001A68C0E9002105E01C461B68E9E71968BF
:104A900014B91160184630BD2160FBE70CB91060F5
:104AA000EEE72060ECE700BFF0180020F0180020CF
:104AB0001B4B30B5C31AB3F5C05F1FD20023194C8E
:104AC00022680AB182421AD3073121F0070102603D
:104AD000154A4518521B072A98BF891841608BB99F
:104AE0002060036853B1426802449A1A072A05D825
:104AF0001A6802601A1A5B681344436030BD13469B
:104B00001268DEE75A6818601A44821A072AE8D841
:104B10000268C11A1A60426818460A445A60E0E7FF
:104B2000F8180020F0180020F83000202DE9F84394
:104B3000814614200F4615469846FFF78BFF044622
:104B400050B1CDB12846FFF785FF064638B920465B
:104B50001421FFF7ADFF34462046BDE8F8831FB1AE
:104B60002A46394606F09BFA0123C4E90096A5605F
:104B700084F81080E360EFE72E46F5E770B5044651
:104B8000002504B970BDE3682668012B0AD1D4E979
:104B90000101E560FFF78CFF14212046FFF788FF35
:104BA0003446EEE7013BE360FAE7000001210148EB
:104BB000FCF7E6B9F418002008B5FFF7F7FF094B3A
:104BC000094A18211360002259711A705A709A709C
:104BD000DA701A719A71DA710448BDE80840FCF77E
:104BE000FFB900BFF8180020F0180020F4180020CA
:104BF000B2F5C05FF8B505460E4614461F460DD8FF
:104C0000FFF7D4FF22463B4631462846FFF78EFF8A
:104C100004460348FCF7E4F92046F8BD0024FBE70E
:104C2000F41800202DE9F8430D4604469146FFF79D
:104C3000BDFF2DB124B1A368AB4201D3636833B982
:104C40002A48FCF7CDF900263046BDE8F883142049
:104C5000FFF700FF06460028F2D0A268AA423DD026
:104C6000EB1D23F007039D4238D22846FFF7F2FEE2
:104C7000074620B914213046FFF71AFFE0E7A06885
:104C8000401BFFF7E7FE804630B914213046FFF79E
:104C90000FFF29463846EFE72A466168384606F096
:104CA000FEF9D4E901124046521B294406F0F7F9F7
:104CB000D4E90101FFF7FCFEC4F80480A3680B48A7
:104CC0005B1BA3602368B560C6E90037012386F843
:104CD0001090F3602660FCF783F9B5E7AA4208BF9D
:104CE0000023676818BF7B196360E7E7F4180020AA
:104CF00070B504460D46FFF759FFA168A94204D1DB
:104D00001A48FCF76DF9002012E035B96068F0B17F
:104D1000FFF7CEFE6560A560F2E7A94217D22846EC
:104D2000FFF798FE064620B91048FCF759F90C2009
:104D300070BD616829B1A268AA4228BF2A4606F060
:104D4000AEF9D4E90101FFF7B3FE6660E3E7EB1DBE
:104D5000CA1D23F0070322F007029342DBD26068EA
:104D6000C91A1844FFF7A4FED5E700BFF4180020C5
:104D700038B504460D46FFF719FF24B9BDE83840A1
:104D80000348FCF72DB9E3682B44E3602468F4E79B
:104D9000F418002010B50446FFF708FF2046FFF77F
:104DA000EDFEBDE810400148FCF71AB9F4180020E8
:104DB00038B50446FFF7FAFE0CB1A2682AB90E48CE
:104DC000FCF70EF90025284638BDE368012B0ED903
:104DD000D4E9000194F91030FFF7A8FE054610B1A0
:104DE000E368013BE3600448FCF7FAF8EBE70248AC
:104DF000FCF7F6F82546E6E7F41800200021FFF757
:104E0000C9BF00001FB50A4CB4F9000000280DDC32
:104E1000084B0322029300230193074B4FF4806158
:104E2000009306480823FCF767F9208004B010BD02
:104E3000F830002094C30008F14E0008FA3000203A
:104E400010B50346044640F2012205490220FEF750
:104E5000A5FD20B92046BDE81040FFF7CFBF10BD2B
:104E60000000FFFF436810B50146044640F20222ED
:104E7000B3F90200FEF787FD002804DC2046BDE8F8
:104E80001040FFF7BBBF10BD2DE9F0410446056897
:104E90000F4690461E4600205DB998F8AD300BB124
:104EA00083420AD332462046BDE8F0410021FFF795
:104EB000D9BFAB682D681844EEE7B7F5006F15D27F
:104EC00000F0D8F928B90C212046BDE8F041FFF7E1
:104ED00061BFB8F8B0303246C0E900470581438170
:104EE00001462046BDE8F04100F0CCB97A21EBE75D
:104EF000102280B598B00DEB0200002106F0DAF820
:104F00005F4B082105935F4B08A81B8840F20326DE
:104F1000ADF81C30FCF76EFE04A90120FFF71CFD64
:104F200040F20523ADF80A3040F201246846FCF750
:104F30005DFEBDF80230B3F5017F2FD8B34280F09B
:104F40009180A34235D040F202229342EED1019DDE
:104F5000ADB3AB68072B32D92B6883B393F910300C
:104F6000022B2CD12846FFF723FF044638B34368B1
:104F70000027B3F90200FEF78EFE80462568002D5B
:104F800057D1B8F1000F22D0D8F8A030DB0554D5A6
:104F90002A462946204600F0D3FFC5E740F22522E5
:104FA000934267D040F226229342BFD100F08EFA9E
:104FB000BAE7019D2846FFF7FBFE044608B92846DC
:104FC00006E00121FFF702FD08B182681AB9204608
:104FD000FFF714FFA8E743681B78412B15D1FFF7B3
:104FE000E7FE05460028F2D001221146FFF71AFE1F
:104FF00001460028EBD02046FFF7F0FC02230022F8
:105000002B741146FFF71CFF8EE703F0D802C02A6D
:1050100009D003F0E003602BD9D1002220461146CD
:1050200000F0A0FC80E700222046114600F036FA8E
:105030007AE7AB682D681F44A1E7012329461A4689
:105040002846FFF7D5FD0028C1D041222368394604
:1050500003602060436820461A702B464246FFF7E3
:1050600013FF61E76FF0850302A968460393FCF71D
:1050700095FD59E700220199104600F003F953E726
:105080000000FFFF4804002038B5064D00202C68C2
:10509000FCF70CFB2B689C42F8D104430248B4FB9C
:1050A000F0F038BD8C0500200087930338B5142438
:1050B0000B4B054604FB0034638A23B9637C23F061
:1050C0001003637438BDFFF7DFFF064B53F825303C
:1050D000834202D800236382F0E71B1A6382F1E760
:1050E00040350020FC3400202DE9F04700248046A4
:1050F00001211248FBF744FF264627464FF01409CA
:10510000DFF83CA009FB04A5E0B2FFF7CFFF2B7C42
:1051100053B14146284601F094FC2B7C834203D8CE
:10512000B84284BF2E4607460134102CEAD103480A
:10513000FBF756FF3046BDE8F08700BF3C35002046
:10514000403500200F2838B5044613D81425012116
:105150000948FBF715FF2046FFF7A8FF074805FBA6
:1051600004052C7C04481CB1FBF73AFF284638BDE7
:10517000FBF736FF0020FAE73C35002040350020E1
:105180002DE9F0410F2805460F4614461E469DF8AE
:10519000188039D89AB301211C48FBF7F1FE14237B
:1051A000002E08BF4FF00008802C88BF8021184ACD
:1051B00003FB05235E828CBF19741C74B8F1000FC9
:1051C00020D045F01003142404FB052439466374F1
:1051D000204601F021FC014640B91022204605F08E
:1051E00069FF227C3946204601F04EFCFFF74CFF58
:1051F000084B304443F825000448FBF7F1FE2046F5
:10520000BDE8F0812B46DEE70024F8E73C350020BE
:1052100040350020FC340020F8B50E4601781746D2
:1052200001F108024378024404460830FFF72EFAE1
:105230000546D8B100214368B4F90220B7425A802C
:10524000227908461A71B4F90620DA8062795A7117
:105250003A464FF0010328BF3246FFF7C9FC044627
:1052600030B901462846FFF795FD25462846F8BD8A
:105270002860FBE702480368002B18BF0020704736
:10528000803600202DE9F04F88464FF0000B85B0A6
:10529000B1F90A00FEF7FFFCD8F800301E68002EB6
:1052A00057D1B8F80840002C68D17A4FD8F804607C
:1052B0003A88A6EB0B0501323A80AAB290F8AD50BD
:1052C0005946043D154405F0F805AD1AADB22A1D46
:1052D00058680193FFF7A0FF824688B3026876BA48
:1052E000D2F804904168A9F8006099F80020019B69
:1052F00062F03F0289F800203A8852BAA9F80220E9
:105300000A7942F010020A711F6837BB002250462A
:105310001146FFF7A7FD9CB1B8F8083002A81C445D
:1053200040F22523A8F80840ADF80A30CDF80C80EB
:10533000FCF78EFB002840F09F80574805F0C2FE26
:105340000021D8F80000FFF725FD0023C8F8003041
:1053500094E0B26836689344A1E7BB682E1B9E4276
:1053600028BF1E46201D3444324679684844A4B202
:1053700005F095FEA542C9D93F68C6E75C45DFD276
:1053800090F8AD70C4F10501053F07F0F8077A1DEC
:1053900059445868D8F804500193FFF73DFF8246FE
:1053A0000028CDD0026869BA52682544118011786E
:1053B000A5EB0B0B61F01F01117036494FEADB0BB7
:1053C0000988019B82F804B049BA1D6802F10509F9
:1053D0005180002D55D0B44201D1002422E0AA68AA
:1053E000B3189BB29C4240D2A61BB6B2A2EB060BEE
:1053F000BB4528BFBB4669685A46314448461FFA38
:105400008BF405F04CFEA7420BD1AB689E1BB34555
:1054100001D32B682BB1DAF80420137943F0100381
:1054200013712D68A7427FF671AF002D3FF46EAF68
:10543000AB683E1B9E4228BF1E4609EB0400344465
:1054400032466968A4B205F02AFEA74210D1AB68C3
:105450009E4203D32B68002B3FF458AFDAF80420A8
:10546000137943F01003137150E72D681E46B0E71F
:105470002D68DAE73C4649E7FBF714FE05B0BDE8C6
:10548000F08F002FF6D02A4629465046FFF7EAFC57
:1054900056E700BF8C36002098C3000830B445683A
:1054A00001462C78134604F0F804C02C0CD0E02CF4
:1054B00006D12879C200086830BC406800F0D2B933
:1054C000002130BCFFF766BC0022F4E700F064B8AE
:1054D00000F057B838B50368028B9B6804469A42BF
:1054E0000D462CD1017D437D00F10C020430FFF705
:1054F000CDF8014638B92068FFF74CFC2046BDE8DE
:10550000384000F03EB8B5F9022043685A802A7945
:105510001A716A795A71B5F90620DA80002303609E
:10552000236813B9206004E013461A68002AFBD1EF
:105530001960002220681146FFF782FCDEE738BDC3
:1055400038B5054C00202568FCF7B0F82368AB425D
:10555000F8D1184338BD00BF8C050020034B044A26
:105560001B8804491BB2044803F014BB4804002004
:1055700024020020C0C62D00903600200021FFF735
:1055800009BC0022C3690BB9036070471968C3E9FD
:105590000022C161F6E700002DE9F041FFF7D0FFDE
:1055A00000240746094DDFF82880605948B12E19BC
:1055B000336AFB1A434504D9FFF7E0FF3046FFF793
:1055C000E0FF2434902CF0D1BDE8F081A436002017
:1055D000C0C62D002DE9F04F80464FF000098DB078
:1055E0000A934B680E460293043315460193FFF766
:1055F000D3FF08F10803069398F800304C46009357
:1056000008334344059398F80130DFF850A2039320
:10561000029B1B885BBAC3F30A030493029B5B885B
:105620005BBAADF822309BB20993FFF789FF4B4676
:10563000079024275F4357F80A20002A00F00481CE
:1056400092680499914255D10AEB070BBBF81620DA
:1056500009998A424ED19BF814200099914249D170
:105660009BF815200399914244D10B93784B009AF3
:10567000D819069905F004FD0B9B00283AD1754B0B
:10568000039AD819059905F0FBFC0B9B002831D132
:10569000079B5C46CBF82030FFF760FFB268002D17
:1056A00079D1029B1B79412B14BF043A053A20683B
:1056B000531981688B4200F2AF80D4F81C901FFA16
:1056C00085FE4B461FFA82FC0EF1FF31614489B220
:1056D000002B65D1DFF888A10AEBC307B7F806B045
:1056E000BBF1000F78D1002F7BD141462046FFF758
:1056F000F1FE62E024B957F80A200AB90AEB070460
:10570000B9F1000F08D00AEB0701096AD9F8202087
:10571000521A51498A4201D80AEB07090133042B76
:1057200087D13CB9D9F80000FFF728FF4846FFF7BA
:1057300028FF4C4600210A9B049A002B0CBF022331
:1057400000230846FFF754FA206020B93046FFF7DF
:1057500015FF01203BE0436800210020C3E9000160
:10576000079B009A23620699201D05F098FC039A76
:10577000059904F10C0005F092FC009B2375039B36
:105780006375BDF82230E38200232383FFF7E6FE32
:10579000002C83D1DAE7029B053A0533019386E7B3
:1057A0009F888F4207D8B3F806A0F24503D3774508
:1057B00007D18A4505D1AF420CD13046FFF7DEFE56
:1057C00035E0FFF7DBFE2046FFF7DBFE02200DB0E1
:1057D000BDE8F08F1B687BE70133342B7FF47CAF8F
:1057E00083E7238BA7F804E09C44F980C7F8009076
:1057F000E761A4F818C00DBB019B1B7803F0E00122
:10580000602916D1012204213046FFF70BFA48B96E
:105810002068FFF7B3FE3046FFF7B0FE2046FFF7E3
:10582000B0FE96E72A462146304600F09BF800205D
:10583000CDE7412B02BF019B0133019340680199E1
:10584000284405F02CFC50E7002C7FF459AF55E7B5
:10585000A8360020B0360020FEFFFF7FA4360020CF
:10586000343700202DE9F04104460D4616461F4608
:10587000FFF7B0FE022807D13B46324629462046B4
:10588000BDE8F041FFF7A6BEBDE8F081082201495E
:1058900005F005BCFFC300081022002105F00ABC7A
:1058A0000021FFF777BA38B504460D4612B110460D
:1058B000FFF70EFE2846FFF7F3FF2046BDE838400D
:1058C000FFF7EEBF10B508220949044605F0D8FBE2
:1058D00048B12378FF2B08D1607800F00F00831EB9
:1058E0005842584110BD0120FCE70020FAE700BFF4
:1058F000FFC3000873B5194B1546194A0E46CDE98A
:105900000023044638B1437CDB0604D4027C802AA1
:1059100021D0402A01D800201BE0D208D11F501C02
:105920002944C2F10F02304405F0AAFB0028F2D14D
:10593000237CD9080D4415F8082C715C03F007038B
:105940004A4002A90B4413F8083C1A420CBF01203C
:10595000002002B070BD0120FBE700BF0F0703016C
:10596000FF7F3F1F2DE9F04F85B0804603924668C8
:105970008A46002943D0D1F8009096F90130D9F831
:105980000440002B2378B8BF032503F00F0343F036
:10599000600323703378A8BF022503F01803082B97
:1059A00062D03AD8002B42D0337858075EBF735D7F
:1059B0000135A371337803F00303022B78D0032B56
:1059C00079D0012B75D0735D0135E371737813F0D5
:1059D000400772D019064ABFB0780020000913F0C2
:1059E00030076AD0FFF7AEFB0746002865D1524664
:1059F0004946404605B0BDE8F04FFFF754BF0223CB
:105A000028220846FFF7F4F881460028B5D1404621
:105A100005B0BDE8F04FFFF743BF102B3CD0182B6B
:105A2000C2D16023237000236370A3701AE06378EF
:105A3000715D03F00F030A0943EA011342F06002AB
:105A40005BB26370711922704A7802F00F0213433F
:105A500063708A78A178EB1C0A43A270F35C04356A
:105A6000E2781343E3709FE7735D61789B099B00C5
:105A700043F06003237001F00F036370735D7219CC
:105A80000B4303F00F0363705278A178AB1C0A43F9
:105A9000A270F35C0335E3E7735D01351A091B015E
:105AA0006370002342F060022270A370E3707BE712
:105AB0004023E3718AE7FF23FBE74FF0FF314046C5
:105AC000FEF784FFD0F804B00190BBF90200FEF7A6
:105AD000E2F87378029003F07003302B6BD00CD88F
