:020000040800F2
:10000000000200209504000831040008ED030008F8
:1000100041040008510400086104000800000000C9
:10002000000000000000000000000000D1030008F4
:100030007104000800000000B503000881040008F6
:1000400031010008310100083101000831010008C8
:100050003101000831010008E1160008E11600082E
:10006000E1160008E1160008E11600083101000859
:100070003101000831010008910D0008310100082C
:10008000970D000831010008310100083101000816
:10009000310100083101000831010008E1160008B3
:1000A0003101000831010008310100083101000868
:1000B0006D1B0008731B00083101000831010008A6
:1000C0003101000831010008310100083101000848
:1000D00031010008350900083B090008310100081A
:1000E000E116000831010008310100083101000863
:1000F0003101000831010008310100083101000818
:100100003101000831010008310100083101000807
:1001100031010008310100083101000831010008F7
:1001200031010008310100083101000831010008E7
:1001300000F0A6B900F0B8BA7047000070B50C46E0
:10014000064600F0A1FA094B094A1D682C44944266
:1001500002D8084A944207D20C234FF0FF3533608F
:1001600000F09AFA284670BD1C60F9E700020020F2
:10017000000001209C4B00201946104600F0A0BA58
:100180001946104600F0A4BA132303604FF0FF3065
:100190007047132303604FF0FF3070471323036051
:1001A0004FF0FF3070470023022903608CBF00200E
:1001B00001207047134910B50C68002094FAA4F18F
:1001C0008442B1FA81F108BF4FF0FF310E4C0F4B62
:1001D00054F8211018600E4B09681A68A1F1080440
:1001E00094420ED022B110790A2804BF0B2010715E
:1001F0000A22012001F8042C31F9021C054A1C6076
:10020000118010BD380400204C040020440400205C
:10021000400400203C040020092930B503791AD994
:10022000092B14D842791A4B00F1080453F82250D4
:100230007DB12D68856053F822502C6043F8224030
:100240000123144A4479A3401468234313600171C5
:1002500030BD8460F2E7092BF9D945790C4B53F88E
:1002600025203AB11468A2420BBF0022246843F84B
:1002700025201460427953F82230002BE7D1012366
:10028000044C03FA02F2236823EA02032360DEE748
:100290004C0400203804002008B5094B1B681A796B
:1002A000092A02D95B79834205D900F0F8F918B11F
:1002B0000122044B1A6008BDBDE8084000F072B886
:1002C0004004002044040020002408B500F0DCF9BC
:1002D000084B094A1B88094D1BB242F82340084AC3
:1002E000214613682868013B1360FFF795FF2C60D7
:1002F00000F054F83C0400208C040020400400204E
:100300004804002013444FF0773223F0030310B564
:100310001C1F43F8042C620742BF4FF08832A3F140
:10032000080443F8082C4FF0807344E902030D4B96
:10033000002244F80C3C0323022044E90532012347
:10034000224644E907300B2342F8201D42F8043DC1
:10035000013B032BFAD120466FF0020340F8443DE5
:1003600010BD00BFC90200080548064A064B0168D7
:10037000914201D1984201D3181A70470430F6E730
:1003800000000020FEE7FEE700020020EFF30880F7
:1003900070470000004870470000002000F078F926
:1003A00001DFFEE7024A536843F080535360704711
:1003B00000ED00E0EFF3098020E9F00F40F804EDD4
:1003C00002490968086000F003F8000040040020BA
:1003D000FFF7F0FE04480068016801C9B1E8F00FBA
:1003E00081F3098800470000400400200D4B0E4AAD
:1003F0000E496846904203D8984201D9002102E094
:1004000009468D46012104207246024202D1EFF3D3
:10041000088001E0EFF309802DE9F00F6B4600F052
:100420006FF800BF580100200000012000020020EA
:1004300008B50249042000F0F3FE00BFD114010802
:1004400008B50249062000F0EBFE00BFBE1401080B
:1004500008B50249072000F0E3FE00BF981201082A
:1004600008B50249082000F0DBFE00BFDD140108DA
:1004700008B50249092000F0D3FE00BFAA12010806
:1004800008B502490A2000F0CBFE00BFBC120108EB
:100490007047704708B5FFF7FBFF6A46114B1249DA
:1004A000934213D3114A124B12498B4211D30021AC
:1004B000114B124A934211D3FFF7EBFF00F08AFE73
:1004C0000FF086FEBDE8084000F03ABF43F8041B79
:1004D000E6E752F8040F43F8040BE6E743F8041B81
:1004E000E8E700BF00000020FEE7FEE798490108AA
:1004F0000002002034040020380400209C4B00201F
:100500002DE9F04F9A464A4B93469A6B8FB003926F
:100510005A6B9F6A0492DA6A044605921A6BDB6B87
:1005200006920793434B88461A68434B9A4202D07F
:1005300042480FF0C1FFB8F1000F4ED000254048EF
:100540000FF0BAFF2E463F480FF0B6FF39463E483F
:100550000FF02AFF05993D480FF026FF06993C4809
:100560000FF022FF07993B480FF01EFF3A0403D516
:10057000039939480FF018FF3B0603D50499374813
:100580000FF012FF36480FF097FF594635480FF02D
:100590000BFFB8F1000F1BD133480FF08DFF314630
:1005A00032480FF001FF6946314BC91A03D5494261
:1005B00030480FF0F9FE20468268C36801698C4616
:1005C00041698E46AD46514691E8F00F416800689A
:1005D00001BE2949052000F023FED4E9023008902D
:1005E0002069D4E906690990606919F4007F0A90CE
:1005F0002248D4E9001208BF04F12005CDE90C23FC
:1006000018BF04F124050B910FF056FF089B0B99BE
:1006100000931B48DDE90C230FF0C6FEDDE909124B
:10062000CDF80090334617480FF0BEFE8BE700BFB1
:1006300000ED00E000000020FEE7FEE7CA1201081E
:10064000E0120108A5130108AE130108BE1301084A
:10065000CE130108DE130108EE130108FE13010892
:100660000E1401081314010825140108561401087A
:10067000580100207E140108AB1401080F13010873
:100680002A13010867130108EFF3108072B6704750
:1006900062B6EFF31080704780F310887047EFF375
:1006A0000580C0B270470000024B034A0349002096
:1006B00000F0E2B804020020F914000820A10700AD
:1006C0000A460146014800F022BF00BF0402002094
:1006D00010B50C460A460146002000F02FF82046CF
:1006E00010BD00001C235843024B1A5813685B06C8
:1006F000FCD57047F414010838B51C2343430C4A59
:10070000D4582568AA0608D50A4B616803EBC002D5
:10071000C9B253F83030506898472B0748BF636818
:10072000054B1B681BB1BDE83840FFF73BBE38BD29
:10073000F414010850050020440400202DE9F04382
:10074000012885B007460E46904603D93849032054
:1007500000F066FD1C234343364AD458D518E3689D
:100760001B075BD5B8F1000F58D0D5F81490B9F13C
:10077000FF3F09D101EB0802914252D1384605B042
:10078000BDE8F043FFF7AEBFFFF789FF50B36569DF
:1007900015F080050BD0484600F022FA054630B12E
:1007A000484600F09FFA636923F080036361314695
:1007B00006EB080291420ED185B33846FFF792FF4F
:1007C00029464846636943F08003636105B0BDE88C
:1007D000F04300F05DBA11F8013B20680606FCD535
:1007E0006360E7E7484600F04BF96369297E43F010
:1007F0008003636101233246CDE90133CDF80080E7
:10080000231D484600F092FA484600F051F9384658
:10081000FFF768FF636923F08003636105B0BDE8FB
:10082000F08311F8013B20680006FCD56360A3E764
:1008300034150108F4140108012810B5044603D941
:100840000A49032000F0ECFC094B53F8303013B197
:10085000012000F089FF1C22064B02FB0434616872
:10086000207CBDE8104001F0ABB800BF3415010892
:1008700050050020F414010801282DE9F84304462E
:100880000D46174603D92749032000F0C9FC4FF055
:100890001C08254E254A08FB0068D8F80C9042F841
:1008A000307002EBC00203215360484600F041FE65
:1008B000484600F094FE0B21484600F06EFE27B13A
:1008C0000421D8F8080000F034FE2046FFF7B4FFFA
:1008D0001C235C43002306EB0408345998F81000ED
:1008E000E3602361636101F04FF8B0FBF5F080B283
:1008F000A0609FB198F8112053B2002B08DB0121B2
:1009000002F01F0201FA02F209495B0941F82320B3
:1009100042F22C03E3600020BDE8F88342F20803B2
:10092000F8E700BF34150108F41401085005002051
:1009300000E100E00020FFF7DFBE0120FFF7DCBE92
:1009400010B598B1012821D00024164A136923F06C
:1009500004031361FFF798FEBFF34F8F30BFFFF71B
:100960009BFEECB1BDE8104000F0A2BF0E4B1A6830
:1009700042F00E021A605A6842F480725A60094AC4
:100980000124136943F004031361E3E7064B1A687B
:1009900022F003021A601A6842F001021A60EEE7C0
:1009A00010BD00BF00ED00E00070004008B5FFF78B
:1009B0006BFEBDE808400020FFF7C2BF054A064BAA
:1009C0000628C8BF1346142200F0070002FB0030BF
:1009D00008307047000402400000024008B5024998
:1009E000032000F01DFC00BF34150108012808B5E4
:1009F00001D9FFF7F3FF084B084953F82030084AA4
:100A0000062BC8BF0A460F2103F007039B0001FA1B
:100A100003F3536008BD00BF2C1501080004024019
:100A20000000024006280DDC0B3040B2002808DB35
:100A30000123420900F01F0003FA00F0044B43F8C1
:100A4000220070470A28DABF383040B23B20EFE777
:100A500000E100E038B5094C00252046012140F8AE
:100A6000045F256000F006FC2046E56040F8105F5A
:100A70000121BDE8384000F0FDBB00BF600500204B
:100A8000012808B503D90849032000F0C9FB0C224E
:100A9000064B012102FB003000F0ECFBBDE80840F2
:100AA000012000F061BE00BF341501086005002080
:100AB000012810B5044603D90749032000F0B0FB14
:100AC000012000F069FE0C20044B00FB0430BDE85F
:100AD000104000F0FFBB00BF341501086005002086
:100AE0002DE9F84F0A9E04469B469DF82C809DF800
:100AF000309092461AB92E49032000F091FB002B4A
:100B0000F9D00128F7D82B4B53F820502846FFF78F
:100B100055FF072DC8BF02210746DABF0121022079
:100B2000084600F04DFF2046FFF760FFB8F1010FC7
:100B300031D002D3B8F1020F36D1C7F808A009F0BE
:100B40000101C7F80CB0C9F34002C9F381094FEAAB
:100B500008104FEA092300F0100043EA89234FEA06
:100B60004838034308F4804843EA080343EA811302
:100B700043EAC2130C223B603B68284643F00A0359
:100B80003B600D4B7E6002FB04342681FFF74AFF79
:100B90000020BDE8F88FC7F808B0C9F34001C7F8D6
:100BA0000CA009F00102D0E74FF0FF30F1E700BFE1
:100BB000341501082C15010860050020012808B52E
:100BC00001D9FFF70BFF054B53F82000FFF7F6FEA6
:100BD000036843F00103036008BD00BF2C15010842
:100BE000012838B5014603D92649032000F018FB37
:100BF000254B53F820402046FFF7E0FE05460068ED
:100C000010F0010030D0062C2FDC04F10B035BB296
:100C1000002B0DDB01205A0903F01F0300FA03F338
:100C20001A48203240F82230BFF34F8FBFF36F8F46
:100C30002B6823F001032B602B68DB07FCD40846EC
:100C4000FFF7D4FE6868062C80B215DC0B3464B262
:100C5000002C09DB0122630904F01F0402FA04F4EA
:100C60000A4A603342F8234038BD0A2CDABF04F147
:100C700038035BB23B23CDE70A2CDABF383464B2C9
:100C80003B24E7E7341501082C15010800E100E0DA
:100C9000012870B5044603D90F49032000F0C0FABB
:100CA0000E4B53F820603046FFF788FE054689B1A9
:100CB0003046FFF7B7FE0C20094B696000FB043497
:100CC0002389EA685B1A1344EB602B68218143F0A7
:100CD00001032B6070BD00BF341501082C150108FD
:100CE00060050020012808B501D9FFF777FE054B04
:100CF00053F82000FFF762FE036823F0010303604E
:100D000008BD00BF2C150108012808B501D9FFF75F
:100D100065FE0C22044B012102FB0030BDE80840B7
:100D2000043000F0A7BA00BF600500207FB59DF831
:100D30002860089D02969DF824600446CDE900567F
:100D4000FFF7CEFE48B92046FFF738FF2046FFF7F1
:100D5000DBFF2046FFF7C6FF284604B070BD000049
:100D600010B50446FFF742FE0C23074803FB0400BE
:100D7000043000F0AFFA054B1B681BB1BDE8104012
:100D8000FFF710BB10BD00BF600500204404002029
:100D90000020FFF7E5BF0120FFF7E2BF002000F0D1
:100DA00091BE000038B5044C2568FFF7F7FF2368B3
:100DB000AB42F9D1184338BD80050020034B1968B8
:100DC00019B982B2084600F05DBE70477805002070
:100DD00010B5094A136843B19C6881688C4207D3F7
:100DE00003D15C6841688C4202D90360106010BD79
:100DF0001A461B68EFE700BF840500202DE9F04785
:100E0000294E3268B24602F58032326032681AB931
:100E1000264B1A6801321A600020254B254C1A68AF
:100E20001860236884461946234FDFF880E0DFF816
:100E30008C803A6021B1DEF800508E68AE4217D93E
:100E400000B12160BCF1000F10D00021CCF80010DF
:100E50003AB3C3B15168586881428CBF19461146F4
:100E6000084612681B6882B903603960BDE8F087E4
:100E70004D68DAF8009005EA08054D45E0D18C464A
:100E800001200968D6E71146EAE70BB90260ECE7F2
:100E900054685D68AC428CBF1C4614460460204612
:100EA000DFE73B60E2E700BF800500207C05002013
:100EB00088050020840500208C0500200000FFFF2D
:100EC00001232DE9F041324F324C3B602368CBB90E
:100ED000FFF794FF4FF6FF75FFF760FFA842FBD0C6
:100EE00000254FF00008236883B9FFF757FF14303F
:100EF000854228D9FFF782FFFFF750FF8542FBD3D9
:100F00000025F0E7FFF74AFF0546EAE75E68FFF7CE
:100F100045FF854205D8B3B2834202D91B1A132B71
:100F2000E3D823685E68FFF739FF854202D8B6B27E
:100F30008642F6D823681A68C3E901882260D3E99B
:100F400003209047CFE723686BB15E68FFF72AFF65
:100F5000063E14308642C6D3002330463B60BDE8CF
:100F6000F041FFF72BBFFFF719FF8542064602D974
:100F7000FFF744FFC4E700F114039BB2984204D981
:100F8000FFF70CFF8642FBD9F2E74FF6FF76E3E767
:100F9000780500208C050020144A1368834210D184
:100FA0001B6813601BB158680638FFF707BF4FF680
:100FB000FF70FAE79842196801D1116070471A462C
:100FC0000B46002BF6D10A4A13681BB9094A13686D
:100FD00033B9704798421968EFD01A460B46F4E7C8
:100FE00098421968E9D01A460B46F1E78C050020B3
:100FF000880500208405002008B50023054A18460E
:10100000054900F071FDBDE808404FF0FF30FFF7E3
:10101000D5BE00BFC10E000840420F0070B5084E9B
:10102000FFF7C0FE34680546FFF7BCFE8542F7D8DF
:1010300000222346141843F100052046294670BDBE
:101040007C050020F8B504460D46FFF7ABFE0023F3
:1010500023602B1A1E2B07460DD8ADB2FFF79EFE5C
:101060008542FBD3FFF79AFE8542FBD8D4E90330D3
:1010700098470020F8BDFFF707FB636806460BB9E9
:10108000A36813B12046FFF787FF1D4BA81F1A68FE
:10109000874288BF0132A2601B68A26865609A42DD
:1010A00005D8184B1A68030C1B049A4206D0204638
:1010B000FFF78EFE3046FFF7EFFADAE7BFB2B8422D
:1010C0000ED9114B19461A6812B15768BD4213D296
:1010D00022601C600B689C42ECD1FFF76FFEE9E7D1
:1010E0000A4A136813B159688D4202D22360146012
:1010F000E0E71A461B68F5E713461268E4E700BF0D
:101100007C050020800500208C050020880500203B
:1011100038B50446FFF7B8FA636805460BB9A3680B
:1011200013B12046FFF738FF2846BDE83840FFF7E7
:10113000B3BAC36870B504460D46CBB1FFF7E8FFFC
:101140001D2D0DD8FFF72AFE0646FFF727FE801B50
:1011500080B28542F9D8D4E90330BDE87040184721
:10116000FFF720FE29182046BDE87040FFF76ABF50
:1011700070BD00002DE9F04704460E4615461AB929
:10118000BDE8F047FFF7D5BFFFF77EFA6368074673
:101190000BB9A36813B12046FFF7FEFEDFF830A0BD
:1011A000FFF700FEDAF800808146FFF7FBFD81457E
:1011B000F6D83618454428BF013520466660A5603C
:1011C000FFF706FE3846BDE8F047FFF765BA00BFF7
:1011D0007C05002070B50E4E0E4D00F0C5FB0E4C88
:1011E0000321304600F0A5F90321284600F0A1F9BB
:1011F0000321204600F09DF9304600F0F0F9284622
:1012000000F0EDF92046BDE8704000F0E8B900BFFD
:1012100002140140050C01400A1001407047000013
:1012200008B50F4B0C461A689AB9012203281A60B8
:1012300003D171460B480FF0B7F821460A480FF06A
:10124000B3F800F0C1FA09480FF0AEF808480FF003
:10125000ABF8FFF719FAFFF7E1FFFFF7A7FB00BFB5
:1012600090050020461501084A1501082D1C0108AB
:101270006615010870B504460D46FFF705FA2368A8
:1012800006463BB94FF0FF332360FFF705FA01250F
:10129000284670BDC5B10E4B02211D682846FEF7D9
:1012A000BBFF236801330AD105F108032360002343
:1012B000AB603046FFF7F0F9FFF774F8E7E729462F
:1012C000204600F083F8F4E7FFF7E6F9E0E700BF17
:1012D0004004002070B50446FFF7D6F9256806469D
:1012E0001DB9BDE87040FFF7D7B96B1C02D10023D0
:1012F0002360F6E7284650F808390B212360FEF7F3
:101300008BFF236813B94FF0FF33236015F8034CAC
:101310003046FFF7C1F92046BDE87040FEF7BCBF7C
:1013200008B500F0A5FD03480FF03EF800F056FCAC
:10133000002008BD7415010808B500F0F9F9FCE7B4
:101340001FB50024FFF7A0F90D4B0F221B684FF4C7
:10135000807102930B4B019400930B480C2300F017
:1013600055F80A4B07221B684FF4C061CDE90143D1
:10137000074B084800930C2300F048F8FFF70EF8DD
:101380001802002039130008940500201C020020D8
:10139000211300089406002008B5FFF775F9094BE2
:1013A0001B681A79092A07D95A79074B53F8221072
:1013B00011B1096843F82210FFF76EF9BDE8084043
:1013C000FEF7F0BF400400204C04002038B50B7934
:1013D000092B03D908490320FFF722FF4C7901F1BB
:1013E0000802036813B98B60026038BD13F8035C10
:1013F000AC42F8D31846F4E734150108031F53F83C
:10140000042F9A42FBD0181A704700000F2A2DE9CA
:10141000F74F05468B4691469A4633D810F00303A2
:101420000FBF0B46C3F10403ED18CB1A303B23F07A
:1014300003031AF0080F05EB030419D12D6003E034
:1014400012600432A242FBD30193FFF71DF901227F
:1014500080462749019B51F8226017B2AEB1013294
:10146000212AF8D14046FFF717F96FF08A073BE0D1
:101470002A46E7E701212046FEF7CEFE4046FFF769
:101480000BF931E06FF015072EE041F822402A46B3
:10149000DDE90C01E780FEF735FF0E9B154AA362DC
:1014A0004FF0FF33C4E9073613681AF0010F03F158
:1014B000010320606562C4F82CB084F805902671A1
:1014C000C4E90266C4E90466A6611360D2D10B21A7
:1014D0002046FEF7A1FE1AF0040FCFD14046FFF7D9
:1014E000DBF84846FEF7D8FE384603B0BDE8F08F7B
:1014F0008C0400204804002038B5054600F058FB55
:10150000044605F11000FFF7E5FE204638BDF8B5AA
:1015100004460D46164600F110073246294620467D
:1015200000F033FB00B1F8BD01213846FFF7A2FE01
:10153000F3E7FF29F8B504460E4620F00F0500F04A
:101540000F0727D00421C0F38323023B99400120D9
:1015500000F036FA0F21FB1004F0070455F82320A1
:10156000A400A14022EA010245F8232055F82310E7
:1015700006F00F0202FA04F40C4345F8234001235D
:101580000020EA68BB40182E0CBF134322EA030375
:10159000EB60F8BD4FF0FF30FBE738B50D46042196
:1015A000C0F383230446023B9940012000F008FA6F
:1015B0000F2024F00F03C4F3C00204F0070453F813
:1015C0002210A400A04021EA000143F8221053F8A1
:1015D000221005FA04F40C4343F8224038BD0123DD
:1015E00020F00F0200F00F0003FA00F010617047C6
:1015F000012320F00F0200F00F0003FA00F0506109
:10160000704700002DE9F84F4FF0010900F00F0579
:1016100009FA05FA6FEA0A089B462E4C174622681B
:10162000064602EA08022260FFF783FF2A4A0A9B65
:1016300042F835B002EBC50253604946484600F017
:10164000BFF90F2005F00C0303F1804303F580334D
:1016500006F0030299689200904021EA0001996027
:10166000C6F383269968023E96400E439E60A368A7
:10167000042D08EA0303A360A26807EA090303FA3A
:1016800005F343EA0203A360E36827FA09F708EACF
:101690000303E360E26807FA05F747EA0207E76039
:1016A0000E4B0EDC063509FA05F51D606368002057
:1016B00008EA0303636023684AEA03032360BDE882
:1016C000F88F092DD5BF4FF400024FF480721A60D5
:1016D0005A60EBE700040140940C002000E100E0B8
:1016E0002DE9F04100244FF001080E4D0E4F6E69B8
:1016F0002A68164008FA04F3334206D06B6107EB00
:10170000C40357F83420586890470134102CF1D1A5
:10171000064B1B681BB1BDE8F041FEF743BEBDE8B8
:10172000F08100BF00040140940C0020440400201C
:10173000F8B50C4D2E6816F47F4F11D1F4B2003479
:1017400018BF0124FEF7A0FF2B6807469E4202D176
:101750002046FFF7F5F83846BDE8F840FEF79CBF95
:101760000224EFE72002002038B5094D04462B5C27
:10177000FF2B03D107490320FFF752FDFEF784FF3B
:101780002B5D0133DBB22B55BDE83840FEF784BF3B
:10179000200200203415010838B5094D04462B5CA1
:1017A0001BB908490320FFF73BFDFEF76DFF2B5DDA
:1017B000013BDBB22B55BDE83840FEF76DBF00BFE3
:1017C00020020020341501082DE9F04F2D4B8BB07D
:1017D0001B882D4A2D492E48ADF824300EF0E4FD2B
:1017E000FEF7C2FD0546FEF7D5FD0446FEF7CEFD29
:1017F0002A46009023464FF4007126480EF0D4FD8F
:1018000001264FF40077DFF89C90DFF89CA0DFF80A
:101810009CB025EAE57559F826401CB394F804807D
:10182000E26A5AF82830606A079317440692FFF775
:10183000E5FD069AB4F90610101A226805440592CF
:10184000626A079BCDE90302E26A58460292627916
:10185000019209AAB8F1090FC8BF01320092A26A29
:101860000EF0A2FD0136212ED5D10B4BCDE901752D
:1018700000930A4A19460A480EF096FD0BB0BDE8DF
:10188000F08F00BFB8150108BA150108C01501088E
:10189000C51501080D1601089316010895160108D3
:1018A000991601088C040020B81601085716010883
:1018B00038B5FEF7E9FE00231D4D0446AB6000F08D
:1018C0003BF84FF480636B602B465A6812F00C0FA4
:1018D000FBD11221174A116081221A601A6842F462
:1018E00080321A601A689103FCD55A6822F47C127F
:1018F0005A605A6842F4E8125A605A6842F4003258
:101900005A601A6842F080721A601A689201FCD517
:101910005A6842F002025A605A6802F00C02082A21
:10192000FAD100F015F82046BDE83840FEF7B4BE05
:101930000010024000200240044B1A6842F00102ED
:101940001A601A689207FCD5704700BF0010024069
:10195000044B5A6812F00C0F1EBF1A6822F00102E5
:101960001A6070470010024008B500F08DFC4FF07F
:101970008051002000F024F8FFF79AFFFFF76AF883
:10198000BDE8084000F027B9034A044B00280CBF0B
:1019900010461846704700BF0051250200A24A04B5
:1019A000044A054B002818BF1346044A105C5843EC
:1019B000704700BF00A24A040051250243170108E6
:1019C00001280AD004D302280CD0BFF34F8F7047F0
:1019D000074AD3691943D161F7E7054A9369194367
:1019E0009161F2E7024A536919435161EDE700BF83
:1019F00000100240012809D002D302280CD0704701
:101A0000084AD36923EA0101D1617047054A936905
:101A100023EA010191617047024A536923EA0101F7
:101A200051617047001002402DE9F8430746002439
:101A3000114A0301D558DFF848802E69EB6808EB9E
:101A4000C0091E400223A340334209D0EA68214660
:101A500022EA0303EB60D9F8040058F837309847BE
:101A60000134042CEED1054B1B681BB1BDE8F843D3
:101A7000FEF798BCBDE8F88348170108440400202D
:101A8000140D0020032910B516DC0D4B00011C18A5
:101A9000185863681A4001F10C0300EB83035A6085
:101AA0000223026903FA01F122EA01020261C3681A
:101AB0001943C160002010BD4FF0FF30FBE700BFAD
:101AC00048170108024B00011B58586A704700BFB5
:101AD00048170108034B00011A58136843F001032B
:101AE000136070474817010801282DE9F8430446A0
:101AF0000E4631D8DFF87090050109EB050718494B
:101B000097F80C8041F8302001EBC0014B60404653
:101B1000B968FFF755FF002359F8055040462B6080
:101B20006B607B68EB62FFF73BFFB0FBF6F00122D6
:101B3000797B01384BB2002BA8626A6106DB01F0A9
:101B40001F018A4007495B0941F823202046FFF71F
:101B5000C1FF0020BDE8F8834FF0FF30FAE700BF77
:101B6000140D002000E100E0481701080020FFF7F5
:101B70005BBF0120FFF758BF82680168531C836078
:101B80004368013B1340C85C7047F8B505460F46F3
:101B9000164614461CB1AA68EB689A4201D1301B64
:101BA000F8BD2846FFF7E8FF013C07F8010BF1E715
:101BB000C26830B584684368121B9A4208D0C26874
:101BC0000468551CC5600020013B1340E15430BD42
:101BD0004FF0FF30FBE700200BF04ABC00B50821B6
:101BE000A1B0094800F03CFB08480EF065FC08482D
:101BF0000EF062FC80226946064808F0FFFE0020D5
:101C000021B05DF804FB00BF240D00206817010817
:101C10008F170108B01701082DE9F04F012889B08E
:101C200006460D4608DC096878480EF0BDFB012425
:101C3000204609B0BDE8F08F754968680EF094FC45
:101C40000446002840F09580042E02DC2968714883
:101C5000EBE7052E28D068690EF0FCF8062E0190FF
:101C600024D0A8690EF0F6F88046D5E902762B69F3
:101C70004FF0FF3225213846009308F09FFCB0F169
:101C8000000A08DA03F07CFD012804D1002003F0EB
:101C900059FDB0F91CA1394604A808F04BFD40B924
:101CA0005D480EF009FCC3E701230193DFF8BC8116
:101CB000DBE730460EF0CEF80290BDF80890B9F19F
:101CC000000F54D15548ECE783684A4649460393D0
:101CD00008F074FA834628B951480EF0EDFB5946D6
:101CE00028460AE004AA002100F036FE054638B96D
:101CF0004C480EF0E1FB2946584604F0BBFF97E73D
:101D0000BAF1000F0ADD00231A461946184604F0FE
:101D10009BFB4368A3F802A0056005462B4640F2F2
:101D200002224149042003F08AFB834608B93F4858
:101D3000D3E7BDF808303A4603993D480EF034FB2E
:101D4000002140460BF01CFE0136019B9E423FF4F1
:101D50006FAF00980EF01AFC002302460099184657
:101D600004F0A4FE05460028AED1324899E70026CB
:101D7000EBE7314968680EF0F7FB002840D1022EEE
:101D800002D129682D4850E72D49A8680EF0ECFBD8
:101D9000044600BB032E02D129682A4845E72A4E93
:101DA000B6F9083023B1716828480EF0FDFA3FE714
:101DB000E8680EF04FF883B20BB9254871E7254B60
:101DC00085B21B88314604203381756004F0B8FC6D
:101DD00029462148E9E72149A8680EF0C5FB0446D9
:101DE00070B9194DB5F908301BB91D480EF0DCFA71
:101DF0001EE70420294604F0C9FC2C81194850E74D
:101E000019480EF059FB002412E700BFF71701082C
:101E10000B170108101801084D180108781801085F
:101E2000CC180108F11801080000FFFF171901087C
:101E30003A190108A01801084D1A01085F19010894
:101E40007E1901088419010824020020A219010842
:101E5000CD1901081A390020EB190108141A0108DC
:101E6000191A0108381A0108541A010840420F00D3
:101E700008B508F053FDFFF7BFF804F0FBFD04F0D0
:101E8000E3FF06F051FC00F049FD08F0B1F900F065
:101E900085FE00F005F8BDE8084004F0F3BF00003F
:101EA00013B5074C074920460BF0D6FD0094064BAE
:101EB00002224FF48061054804F024FC02B010BDFA
:101EC000641100206C1A0108841A0108640D0020B6
:101ED000F8B505460E46FEF7D7FB374B374A1B8849
:101EE00007461BB252F823301A6A002A50D0D3E9B1
:101EF0000542A2424CD0621C5A61DA69144046B9CC
:101F00001A6932B9621C04D13846FEF7C5FB204677
:101F1000F8BD002C40DB1A6A02EBC40292E8030011
:101F200085E803001E69002E38D03268002C1A6143
:101F30000DDBD3E906255969186A511A8D42B1BFE4
:101F40004FF0FF32511C2A40996100EBC2057368C3
:101F500093E8030085E8030016F8043C052B15D030
:101F600000230B217360A6F10800FEF755F916F85F
:101F7000034C3846FEF790FB0E2C1AD82046FEF78D
:101F80008BF916E03846FEF787FB12E00F24F0E7E6
:101F90004FF0FF34002EB3D0DD60C3E7002CF1DA40
:101FA00018460321FEF738F93846FEF775FBFEF7B1
:101FB000F9F90124ABE700BF3C0400208C040020A9
:101FC00010B5D0E9063244691C1BA24201DA002098
:101FD00010BD5C1C13408461F9D4026A03C902EB92
:101FE000C30383E803000120F2E700002DE9F84372
:101FF0001E46264B074653F82150254B91461B8819
:1020000003803DB93046FEF747FB4FF0FF342046D2
:10201000BDE8F8832B79032B2ED01E4B01462846B2
:10202000D3F80080FFF7CCFF044650B13046FEF7EE
:1020300033FB98F80430052B01D1FEF7B3F90124E6
:10204000E5E7B9F1000F03D13046FEF725FBDEE7E7
:1020500098F804304046052B0CBF05210421C8F830
:102060000C70FEF7D9F8414605F11000FFF7AEF904
:102070003046FEF711FBE0E7EB6803C883E8030096
:102080000B212846FEF7C8F8F2E700BF8C040020B9
:102090003C0400204004002038B50446FEF7F4FA62
:1020A000074B21461B8805462380064B1868FFF71F
:1020B00087FF04462846FEF7EFFA204638BD00BFEA
:1020C0003C0400204004002008B50F4B53F8213099
:1020D000B3B1212202801A79032A0BD103C8DA682E
:1020E00082E8030018460B21FEF796F80120074B03
:1020F000186008BD01461846BDE80840FFF760BFFC
:102100004FF0FF30F5E700BF8C04002044040020AE
:1021100070B504460D46FEF7C2FA28B1294620469E
:10212000BDE87040FFF7D0BF094B1B881BB2AB4224
:1021300004D12046BDE87040FFF7AEBFFEF7A4FA19
:102140002946034601222046BDE87040FFF74EBFF6
:102150003C04002070B504460D46FEF7A0FA064682
:1021600028B129462046BDE87040FFF7ADBF0A4BB5
:102170001B881BB2AB4204D12046BDE87040FFF77C
:102180008BBFFEF781FA3246034629462046BDE85A
:102190007040FFF72BBF00BF3C0400202DE9F04149
:1021A000124F06463B880C461BB29342154603D19C
:1021B0000F490320FFF734F8FEF766FA80463A88A5
:1021C0000C4B12B253F8227005213846FEF724F862
:1021D00096E80300FC60434684E803000122294698
:1021E0002046BDE8F041FFF701BF00BF3C040020DE
:1021F000341501088C04002070B504460D46FEF726
:1022000043FAB4F90020114B064653F822401CB99A
:102210000F490320FFF704F82379052B04D0FEF7BC
:102220003BFA4FF0FF3070BDE36895E8030083E8A8
:1022300003000B212046FDF7EFFF64793046FEF7DF
:102240002BFA2046FEF728F80120ECE78C0400204A
:10225000341501080021FFF73BBE0121FFF738BE0E
:1022600008B5074B4A1E1B681140186203D0054988
:102270000320FEF7D5FFC3E90511DA6108BD00BFF1
:1022800040040020341501080C4B0D4A10B59A602B
:10229000102200210B4C83F82220DA7760180131DC
:1022A0003C2980F80023F9D11A6942F010021A6122
:1022B0005A6942F400725A6110BD00BF00ED00E09F
:1022C0000000000800E100E0002104F0D3BC0000A1
:1022D00010B50822094904460DF09EFF48B1237845
:1022E000FF2B08D1607800F00F00831E5842584140
:1022F00010BD0120FCE70020FAE700BF1C1E01080A
:1023000070B51E46CBB2002115460246084604F0C1
:102310009BF8044620B92846FFF7D6FF204670BD3B
:1023200043681E710560F9E738B502460C4618B9D6
:102330001C490320FEF774FF4B68B0F81C11002500
:10234000598021680B4663B9B2F80A01A8420CD241
:1023500021460CF0E3FD2046BDE838407A2104F028
:1023600089BC98681B680544EDE7D2F88C00013001
:10237000C2F88C0089B9D2F8941001200B44C2F83D
:1023800094300949234640F2022203F058F840B93C
:102390002046BDE83840FFF797BF886809680344C6
:1023A000E8E738BD341501080000FFFF2DE9F843C8
:1023B0000D4612C906460A460023002A3ED15BBAE2
:1023C000A380A379FF2B03D100293BD13B23A37129
:1023D000E3791BB9002E40D14023E37104F10807D3
:1023E0001022284938460DF017FF814670B904F1D4
:1023F00018082549102240460DF00EFF014678BB13
:10240000102238460DF022FF0123E3752C46206888
:1024100004F03EFC88B390F910302060022B03D109
:1024200003680446002BF2D1294604F0DEF90028A7
:1024300001DA023021D10120BDE8F88390681268EA
:102440000344BAE70B7C023BDBB2022BBED80F4A37
:10245000D35CFF2BA371BBD1B8E796F81A31BCE768
:1024600041464A46304603F0BBFB01460028CDD02A
:10247000102238460DF0DFFEC8E72846FFF724FF9C
:102480000020D9E74C1E01082C1E01088E1A0108F5
:102490002DE9F04390F9103089B0013305468846A4
:1024A00024D144681CB95F490320FEF7B9FEB4F992
:1024B000020003F072F906462846277904F0E8FB8B
:1024C000014618B92846FFF7FFFE0CE004F0A6F914
:1024D000054607F03F0795F91030022B09D0162169
:1024E000284604F0C7FB09B0BDE8F08300273E464C
:1024F000F1E7686810224C4918300DF08DFE002875
:10250000EDD0284604F0C4FB04460028DAD0456824
:102510002B7EFF2B0ED1002E6CD103F031F9002859
:102520005AD12046CFE721463046FFF73FFF00282B
:10253000D9D062E01835284603F02CFC10228146E1
:102540003A4928460DF068FE10B1B9F1000F18D0D5
:10255000B8F1000F0ED1204604F08FF90028E0D129
:10256000234640F201223249022002F068FF00288F
:10257000B9D1D6E721464846FFF718FF0028D0D04A
:10258000E9E701AB22463146284600F091FB0028DE
:10259000A9DBBDF81C00C0F3041003F0FEF80546EB
:1025A000002880D0B8F1000F10D19DF81E103B46D6
:1025B000224605A8FFF7A4FE0146002893D0D5F8CF
:1025C000843028460133C5F8843027E02146FFF7E0
:1025D000EDFE002887D0E8E7304603F0B3F800218D
:1025E000224606463B460846FFF78AFE0446002878
:1025F0003FF479AFB8F1000F95D1002147F04003C7
:1026000008462246FFF77CFE014600283FF46BAFE8
:102610003046D6F888300133C6F88830FFF784FE9C
:1026200061E700BF341501084C1E01082C1E01088B
:102630000000FFFF00232DE9804899B00593A3F522
:1026400080330693B14B08211B8808A8ADF81C30D5
:10265000FFF706FE05A9022004F072F840F20523F8
:1026600044F6C078DFF8B092ADF80E3044F6C3748B
:1026700001A8FFF7F2FDBDF80610A1421CD84145A4
:1026800027D240F20223994200F03D8109D840F25E
:1026900001239942ECD1029E26BB9D490320FEF7FF
:1026A000BFFDB1F5017FE3D86FF0850303A901A851
:1026B0000493FFF7A1FDD9E744F6CF7399420CD8F4
:1026C00044F6CB73994204D2A1F59F43453B042BBA
:1026D000CED8029800F040FFC8E7A1F59F43513BD8
:1026E000012BF5E74FF0FF31304604F08FF8044638
:1026F00040B34368B3F9020003F04FF805460028E1
:10270000CBD032460021D0F898300133C0F8983051
:10271000936812681944002AFAD1D5F89C30A2684F
:102720009B1A0B44C5F89C3073683BB1B268272AEA
:1027300004D91B7803F0F003602B05D03046FFF777
:10274000C3FD93E70546EFE7304604F0A1FA0446DF
:102750000028F3D00222282104F0C2F900232374B8
:10276000034608B92046EAE74768F87920B92146C8
:102770000CF0EAFB742151E0B988BE7949BA89B2FC
:1027800009B93B2EEED19C4235D0A3688B4231D99A
:10279000204604F00BFA236807F1180B1022494673
:1027A0005846D3F800A00DF037FD002869D05846F0
:1027B000FFF78EFD00B1ADBB584603F0EBFA0546BE
:1027C000B0FA80F0400900285BD007F108052846E0
:1027D000FFF77EFD50B32846FFF77AFD002849D069
:1027E0005846FFF775FD002844D1214602200CF021
:1027F0007FFBB7E7234600229868024493F9100054
:10280000022802D01B68002BF6D1283A8A42C2D295
:10281000391D224600200CF0ADFB1621204604F0A5
:1028200029FA23E7584603F0B5FAC9E75846FFF7F7
:102830004FFD0028CFD1FB79013BDBB2FB71002BB0
:1028400095D0504604F024FA00288BD04FF0FF3189
:10285000204603F0DBFF014610B1204603F0DEFF07
:10286000204603F0F2FF00283FF400AF0021FFF7FD
:102870000FFEFBE63B7EFF2B3FF474AF21460320A7
:10288000B5E7292E3BD03A2E37D0112E0CBF0423AA
:10289000002323743146022003F093FF002801DC5B
:1028A0003A2E2ED10121204604F0D2F901272346E9
:1028B00040F20122174994F9100002F0C0FD10B94E
:1028C0002046FFF701FD87B13A2E03D101212046B2
:1028D00004F0BEF9234640F201223146022002F004
:1028E000AEFD10B92046FFF7EFFC3A2E7FF4BEAEE6
:1028F000214628460CF042F9B8E60323C9E7022333
:10290000C7E70027D3E701210298B0E73C04002085
:10291000341501080000FFFF2C1E01081FB50A4CEA
:10292000B4F9003063B9094A4FF48061CDE901324E
:10293000074B0422009307480823FEF767FD208019
:10294000B4F9000004B010BDC0150020911A0108B0
:1029500035260008C0110020F8B50F4616460223A0
:102960002822002104F0A2F80546A0B144681022F4
:1029700004F10800394687B10DF05DFC04F1180040
:102980001022314666B10DF056FC60232360FF2310
:10299000A3710023E3712846F8BD0DF057FCEDE765
:1029A0000DF054FC012384F82730EEE72DE9F843BD
:1029B0000C4D99460C4B074688462846114614464E
:1029C000B3F900600CF01EF80023A4F80A80C4E9F3
:1029D0000039E760268121462846BDE8F8430BF020
:1029E000E7BF00BF08180020C015002010B508225E
:1029F000094904460DF010FC48B12378FF2B08D19B
:102A0000607800F00F00831E5842584110BD01202D
:102A1000FCE70020FAE700BF1C1E010808B51022E1
:102A200003490DF0F9FBB0FA80F0400908BD00BF82
:102A30004C1E01087FB503680446B3B193F86620C5
:102A4000120712D5014610226846B3F864500DF003
:102A5000F2FB2046002401F089FC2646C5F304154C
:102A6000204601F0DBFD044608B904B070BD2068C3
:102A70000028F5D0B0F86430C3F304139D42EFD1C1
:102A80006946043007F045FD0028E9D0226884F843
:102A9000346092F86630204623F0400382F86630B6
:102AA00001F094FDDCE72DE9F843089C804691464F
:102AB0001F460D4691B191F81B31082B0ED10146EE
:102AC000102238460DF0B7FBB5F81C3101261B016A
:102AD0003B830023BB763046BDE8F8830CB394F803
:102AE0006630DA071DD5204601F028FA0646C0B147
:102AF000B4F8643003F00703032B0DD10422214600
:102B0000284601F085F841F2883304F1240244F6A6
:102B1000C8712046FFF74AFF3946204601F0B4FB52
:102B2000D9E73A462946404601F064FF06460028A8
:102B3000D1D11CB194F86630DB0724D40DB3B5F9BC
:102B40001C110222404601F029FB04460028C2D095
:102B500035B1D5F8A0301BB1022241460320984779
:102B60000125B9F1000F07D0494603200CF0C0F948
:102B70007621484604F07EF82946204600F0C0FF42
:102B8000A9E72946DDE7B4F8643003F00703012B19
:102B900002D1032384F867303546E2E738B50A4CA2
:102BA00001210A48FEF766FBA16929B10D6820469C
:102BB0000BF028FF2946F8E701F022FABDE838407B
:102BC0000248FEF787BB00BF081800202418002029
:102BD00030B5044685B018B931490320FEF720FB13
:102BE00002F05CFE47F2305304F11000C4F8F830F4
:102BF00000F0F8FF4FF47A73C4F80031012384F831
:102C000009314FF4E163A4F804314FF0FF3300259C
:102C1000C4F8F430D4F80C3184F8065143F00203C0
:102C2000C4F80C311F49204603F0F2F894F81B3128
:102C300084F80751032B12D10823ADF80230052385
:102C400001958DF804300DF10203029302230395E0
:102C5000ADF80C30236801A91B6920469847002570
:102C6000114984F80851204603F0D2F8A84204DA4A
:102C7000204602F01AFE05B030BD402220460B4926
:102C800002F084F84FF47A71284607F053FE04F1FD
:102C9000C402034644F6C3712046FFF787FEE7E708
:102CA000341501080C1E0108FC1D01081C1E01083A
:102CB0002DE9F0430C468DB0074608461646994666
:102CC00002F0ECFD01215848FEF7D4FA9CB3B4F9A8
:102CD0001C11384601F0DEF98046002840D0B0F8DB
:102CE0006450C5F304153846FFF780FE48B945B176
:102CF000204602F0DAFD284602F04FFD044602F0BD
:102D0000CDFD002C00F08580CDF800804B4632468A
:102D100021463846FFF7C7FE00280CBF6FF0750547
:102D200000254148FEF7D6FA204602F0BEFD2846AF
:102D30000DB0BDE8F0832146CBE795F834305A0753
:102D40000FD5EB8EDB070CD5291D384607F0F6FBB7
:102D500095F83530834204D82B68B3F86450C0E747
:102D60000546284601F05AFC05460028E5D13846BC
:102D7000FFF73CFE0028B6D103AA3146384601F0E1
:102D80009FFC051E38DB07A8FFF748FE28B19DBB56
:102D90001022394607A80DF04EFA74B1B4F91C217F
:102DA000BDF82E309A4202D0204602F07EFDB4F9E2
:102DB0001C21BDF82E309A4207D0BDF92E0002F03A
:102DC000ECFC044602F06AFD0CB3B4F91C1107A830
:102DD00001F060F94B4600903246214607A8FFF704
:102DE00062FEF0B1D4F8A0309DF82C20002B98D0D2
:102DF00003A90220984794E7314600200CF078F8A8
:102E00007221304603F036FF6FF0710589E72146E5
:102E1000DDE7314603200CF06BF87621304603F0F5
:102E200029FF6FF075057CE7241800202DE9F04F8D
:102E300089B0039115469A46044618B9AD49032056
:102E4000FEF7EEF902F02AFD0121AB48FEF712FA77
:102E50002B78853B032B4CD8DFE813F00400590096
:102E6000D101A5024FF4FA71002007F063FDD4F8F8
:102E70000C319A073DD5039BDB79FF2B39D16B7859
:102E8000BBBBBAF1070F34D9AAF1080708352E46A3
:102E9000B846039B03F10809B8F1000F17D1039E50
:102EA00008363046FFF7BAFD28B95FBBB4F91C11EC
:102EB000304601F0EFF8D4F80C3103F00603062B8E
:102EC00017D100223146204600F02AFC11E0C2450D
:102ED0000FD373786BB13378012B05D07378DB0097
:102EE000A8EB03081E44D7E74846FFF797FD0028E4
:102EF000F4D08148FEF7EEF9204602F0D6FC09B086
:102F0000BDE8F08F6B78DB00FF1A1D44CDE7039B13
:102F100003F108084046FFF769FD0028E9D0039B4C
:102F2000DB79FF2BE5D16F78002FE2D1BAF10F0FDB
:102F3000DFD9AAF1100305F1100604933346049972
:102F4000002974D1002F00F08480384601F09EFEE5
:102F500082460028CDD04EF66023B7F806B09BFA23
:102F60009BFB1FFA8BFB03FB0BFBEB88B4F91C11DB
:102F70009FB2002F76D05BBA40469FB201F0C8F9ED
:102F800080460028B5D04FF47A735F43021D3B465C
:102F900044F6CD71FFF70AFDBB4528BFBB462B7930
:102FA0000BB184F81A31AF6897B1D4F8F8303FBA52
:102FB0009F420DD02046514B04F1B40244F6CE712D
:102FC000FFF7F4FCC4F8F87004F1100000F00AFEFA
:102FD000EB6813B11BBAC4F80031B8F1000F0FD081
:102FE000237C13F0EF0F03D004F1120001F034FD45
:102FF000637C13F0EF0F03D004F1220001F02CFDED
:10300000049B002B38D104F1C40529463C480BF041
:10301000F9FC204600F028FC2A4644F6C3712046FD
:103020004FEA9B0303EB4303FFF7C0FC61E78A45CC
:10303000FFF45FAF5A78002A3FF45BAF187823287B
:1030400003D1002F7FF455AF1F46D200891A1344D5
:1030500076E7D4F80C319B073FF54BAF4FF0FF3BC1
:10306000BA4682E7404601F0B1F98046002896D082
:10307000FFF7E0FCB84692E73378032B2BD008D853
:10308000012B13D07378049ADB00D21A04921E44E9
:10309000B6E7052B11D0222BF4D1524631462846F3
:1030A00001F03CFE834528BF8346EBE733462A46C2
:1030B0000399204600F0C6FDE4E77378012BE1D1C7
:1030C0002B78862BDED173681BBAB3F5A06FD9D3EA
:1030D000A4F80A31D6E773787768D6F80880042B0D
:1030E0003FBA98FA88F80DD04FF0FF37BB4528BF9C
:1030F000BB46C7E7341501082418002000DD6D0029
:10310000081800202B78862BEED106F110094846CE
:10311000FFF76CFC0028E7D14745E5D3F378580664
:1031200004D5B2784946204601F030FE96F90330C6
:10313000002B06DBD4F80C319907D5D5BAF1000F76
:10314000D2D0B37805937368DBB91F4612E097F8C5
:1031500034305A070ED597F83530059A934209D185
:103160004946381D07F0EAF9059B834202D83846E4
:1031700001F0FAFA384601F051FA07460028E6D184
:10318000B2E77B1C07D0BD4B9F4296BF4FF47A73CA
:103190006FF001075F43B8F1FF3F08D0B74B984588
:1031A00096BF4FF47A736FF0010803FB08F8B4F987
:1031B0001C014946CDF800803B46059A01F0A8FB6A
:1031C0008146002890D0BAF1000F03D00146504646
:1031D00001F048FBF278100642BFB9F8363043F0F0
:1031E0000103A9F83630510642BFB9F8363043F032
:1031F0000203A9F83630474528BF474676E7039BC8
:10320000DB79FF2B7FF475AE6B78002B7FF471AE0A
:10321000BAF1170F7FF66DAE2B7AFF2B3FF469AE34
:10322000039B03F108084046FFF7F8FBF8B905F1E6
:1032300008073946204602F0A3FC031E0493FFF65C
:1032400058AEAAF1180905F118063246CB46BBF173
:10325000000F16D14046FFF7E1FBF0B15B46CDF819
:1032600000B042462146384601F05CFF41E6039B30
:103270000D22834903F118000CF0CEFF0028D6D0B0
:1032800037E6DA45FFF435AE5378002B3FF431AE24
:10329000DB00ABEB030B1A44D9E7D4F80C31DA07A7
:1032A00005D40322B4F91C11404600F077FF4FF01B
:1032B000000AD3460AE03378012B38D0212B08BF0F
:1032C000B2467378DB00A9EB03091E44B9F1000F85
:1032D000F1D153462A46CDF800B00399204600F0BC
:1032E00047FB049B054623441B7C13F0200F039BE4
:1032F0001B7E52D0D4F80C2112F0020F14BFC0264E
:103300004026FF2B46D104F5887194F8182106A8B1
:103310000CF091FF94F81811B1B12A4606A801F0FB
:1033200047FEA0B94946284603F0A4FCE1E5D4F8DD
:103330000C319B0706D433462A460399204600F0F9
:1033400081FCBEE7B346BCE7284646F020060546AA
:1033500031462A46384601F0ACFD01460028E2D04D
:10336000B4F91C11384600F095FE054600283FF4DC
:10337000C0AD90F86630DE077FF5BBAD4FF47A71D3
:10338000002007F0D7FA05F13402034644F6C27173
:10339000284649E646F02006DAE70090A3F1FF0050
:1033A000434243415DE7039BDB79FF2B7FF4A1ADF3
:1033B0006B78002B7FF49DADBAF1170F7FF699ADB6
:1033C0002B7AFF2B3FF495AD039B1B7EFF2B03D184
:1033D0002B7959063FF58DADAAF1180905F11807AB
:1033E0003A464E465EBBB4F91C1105F1080000F0E8
:1033F00051FE804600283FF47CAD90F86630DA0735
:103400007FF577ADB9F1000F24D166B92B795B0652
:1034100009D5B8F8643003F00703022B03D0414606
:10342000204600F0D7FCD4F80C3113F001037FF4F0
:1034300060AD2A464146204600F0DEFC59E5B24523
:10344000FFF457AD5378002B3FF453ADDB00F61A71
:103450001A44C7E73B78022B07D0212B12D07B7888
:10346000DB00A9EB03091F44CCE73B462A46414653
:10347000204600F0C1FC0126F1E700BF378941007A
:103480003C1E0108CDE900783B462A4603992046B8
:1034900001F056FBE3E700BF38B50D46044602F0E5
:1034A000FDF93DB1204600F0DFF92046BDE8384087
:1034B00002F0FBB94FF47A71284607F03BFAFD237E
:1034C0000546D4F80C2184F8063122F00402C4F831
:1034D0000C21204600F014F92B4604F1C40244F6F6
:1034E000C3712046FFF762FADFE7000038B50446F3
:1034F00002F0D4F944F6C371204601F063FA94F85F
:10350000073142F21075022B0AD94FF47A62033B5D
:1035100002FA03F31D444EF660239D4228BF1D4668
:10352000A84212D90B49204601F07CFE94F80731DD
:1035300004F1C402092B9CBF013384F8073144F61F
:10354000C3712B462046FFF731FA2046BDE83840CC
:1035500002F0ABB90C1E0108F8B50D460446012176
:103560006448FDF787FEA5F59F41403910290DD825
:10357000DFE801F0090919270C2B2F11113D0C412F
:1035800045B815BC3300204600F0DCFBBDE8F84030
:103590005848FDF79FBE204600F0FEFBF6E72046A8
:1035A00000F020FBF2E7234640F2022252490220BB
:1035B00001F045FF0028E9D10921204603F05AFB1C
:1035C000E4E72046FFF792FFE0E7204600F02CF901
:1035D000DCE7204600F094F8D8E794F83430204631
:1035E00023F0100384F8343000F0F0FFCEE72046DB
:1035F00000F0B0FDCAE7204601F0F8F8C6E72368FE
:10360000B3F86400C0F3041002F0C7F80546FDF7F4
:1036100005FD00234FF47A720CF09AFA064628460C
:1036200002F03CF9A36B9E422ED304F114013348FF
:1036300005F11206271D0BF0E5F93946304606F074
:103640007DFF94F83530834203D83146284602F096
:10365000E3FC05F122063946304606F06FFF94F888
:103660003530834203D83146284602F0D5FC94F821
:103670003430204623F0040384F8343000F0A6FFF1
:10368000284602F012F981E7E36B9E42F8D3271D2A
:10369000394605F1120006F051FF94F835303946ED
:1036A000834298BF2B7C05F122009EBF23F01F03AD
:1036B00043F008032B7406F041FF94F8353004F111
:1036C0001402834298BF6B7C44F6CC719EBF23F0FA
:1036D0001F0343F008036B74A36B20469B1BFFF78B
:1036E00065F9CDE72046FFF7A5F94FE7204601F041
:1036F000B3F94BE7241800200000FFFF0818002052
:1037000010B5044602F0CAF81CB904490320FDF7BD
:1037100087FD2046BDE8104002F0C7B83415010807
:103720002DE9F74F8046894617460024204601F0D0
:10373000D7F8044610B903B0BDE8F08F47B10020B8
:1037400000903B464A460021404601F0BFFDEDE7B0
:103750003E463D464FF0010BB8F91CA104EBD503E2
:1037600093F8292005F007030BFA03F31A420ED051
:10377000E8B205F08FF9034648B10026428A417C41
:10378000007C009606F0D6FB06460028D7D001350F
:10379000102DE3D100254FF47A7B2946204601F015
:1037A0007DF8054670B9A58AFDF738FC1D4A00234F
:1037B0000CF0CEF9291A3346224689B2206906F068
:1037C000DFFBBDE72B68B3F86430C3F304139A45FD
:1037D000E3D1FDF723FC4FF47A7200230CF0B8F923
:1037E000AA6B531CEB6B1CBF121AB2FBFBF2591CE9
:1037F000E98E1CBF1B1AB3FBFBF311F0010F0CBFCA
:1038000000208020890748BF40F0400095F835101F
:10381000CDE90006281D01F0D5FB06460028BCD1E5
:103820008DE700BF0087930338B50546B0F8640004
:10383000C0F3041001F0B1FF044618B90949032090
:10384000FDF7EEFC02F02AF8D4F80C315B0704D542
:103850000022291D2046FFF763FF2046BDE83840BF
:1038600002F023B834150108002280F80621D0F8B0
:103870000C2142F00402C0F80C21FFF741BF000008
:103880002DE9F84F01F108078046DDE90AA58946D0
:1038900093463449102238461E460CF0BDFC0028E1
:1038A00053D0BAF1000F50D0002D3DD1F488002C38
:1038B0004DD053465A464946404600F0C3F9B8F940
:1038C0001C11384600F0E6FB0546002845D00822CA
:1038D0001430B1180CF0AFFC05F15407224B3946F7
:1038E0002248B3F90080F6880BF08CF84EF660237E
:1038F00076BAB6B25E43002444F6C9736C65A5F887
:103900005E30AE652D66A5F85C80394617480BF031
:103910004FF8B5F8643023F4C06343F48063A5F82E
:1039200064302046BDE8F88F95F86630DB07BDD5DA
:10393000082205F11400B1180CF06EFC0028B5D077
:10394000B5F8643003F4C0634BB90420EAE7002DF6
:10395000FBD0284600F0FEFBE3E70220E2E701206F
:10396000E0E700BF4C1E0108C01500200818002029
:1039700073B5069E1C469BB10025CDE9006501F09C
:10398000DFF8C31EDBB2012B0AD92B46E18804F114
:10399000080249BA89B202B0BDE8704006F0B0BA78
:1039A000002002B070BD00002DE9F8430C4D99468F
:1039B0000C4B07468846284611461446B3F900606A
:1039C0000BF020F80023A4F80A80C4E90039E7606E
:1039D000268121462846BDE8F8430AF0E9BF00BF2A
:1039E00008180020C015002038B504461546B1B1AE
:1039F00090F868209A4209D1B4F86410B5F9000033
:103A0000C1F30411081A18BF012038BD1A4602314B
:103A10001C300CF001FC0028EED00120F5E7084630
:103A2000F3E700002DE9FF410C46074615461E4608
:103A300000F0EAFC1CB919490320FDF7F1FB1DB3A6
:103A40000068B4F91C21B0F86430C3F304139A423F
:103A50001AD13146043006F05CFDA8B1606803213C
:103A60000368D3F8108008230DEB0302C04780B22F
:103A7000082806D1002302AA0F21184606F040FAB2
:103A800018B904B0BDE8F0810020009033462A4602
:103A90002146384601F0E8FAF3E700BF3415010883
:103AA00070B50446B0F864000E46C0F3041001F08F
:103AB00074FE054618B911490320FDF7B1FB01F06A
:103AC000EDFE16B1002384F86730231D184600224E
:103AD0002946FFF7A7FFD5F8003104F1240244F688
:103AE000C0712046FFF760FF284601F0DEFE94F823
:103AF0006730013384F8673070BD00BF34150108AA
:103B00002DE9F043B0F8643085B013F007050446A2
:103B100088465FD0022D60D8C3F3041001F03DFE4B
:103B200044F6C1710746204600F04CFF81461FB99C
:103B30002B490320FDF774FB384601F0AFFED7F8A0
:103B40000061B14543D9B8F1000F02D0002384F8D9
:103B50006730012D15D194F8670040F2DC5102382E
:103B6000C5B24FF4FA7006F0E5FE06FA05F54FF41B
:103B70007A7645434EF66023B5FBF6F69E4228BFA3
:103B80001E4640F2FF220023CDE900234FF0807350
:103B90000293FF238DF80C30637C00228DF80D30EA
:103BA000638A3946ADF80E30201D6B46FFF73AFFA9
:103BB000334604F1240244F6C1712046FFF7F4FEB7
:103BC00094F86730122B9CBF013384F86730384675
:103BD00001F06BFE05B0BDE8F083FFF761FFF9E788
:103BE00034150108D0F8E81010B50446480801441F
:103BF00006F0A0FE04F1A402C4F8EC00034B20463A
:103C0000BDE8104044F6CE71FFF7CEBE00DD6D007A
:103C100070B50546B1F864300C4623F00703134332
:103C2000A1F86430164601F039FE35B1D5F8A03060
:103C3000211D13B13246032098472846BDE8704045
:103C400001F033BE2DE9F84390469946054618B970
:103C50003A490320FDF7E4FA01F10807B0F91C1115
:103C6000384600F017FA49460446284602F0CAFBD7
:103C7000061E3ADB1CB394F86630DB071FD594F8B8
:103C80006830B3420ED0D5F80C3198072FD404F128
:103C900024012B480AF0B6FE032221462846FFF7EE
:103CA000B7FF08E0324609F1020104F11C000CF0F4
:103CB000B3FA0028E7D194F86630DA0711D403226A
:103CC000B5F91C11384600F069FA044668B198F855
:103CD0000030872B05D1B0F8643023F00803A0F83A
:103CE000643094F86630DB0706D4BDE8F88398F8B2
:103CF0000030852BCBD1DEE798F80030862B16D12B
:103D0000B4F8642042F00802A4F86420D5F80C212D
:103D1000910701D5852BE8D084F86860324609F117
:103D2000020104F11C00BDE8F8430CF084BA872BB3
:103D3000ECD0B4F8642022F00802E5E7341501085D
:103D400008180020B0F8642010B502F00703022B19
:103D5000044606D0052B11D0012B1CD10021204692
:103D600008E090F86730022B03D9BDE8104000F05E
:103D7000F1B90021BDE81040FFF7C2BE90F86730EE
:103D8000022BEBD9C2F3041001F007FD01222146FA
:103D9000FFF73EFFE2E710BD38B50446B0F8640017
:103DA00000F00703042B12D0062B12D10325C0F319
:103DB000041001F0F2FC2A462146FFF729FF052DE9
:103DC00007D12046BDE838400121FFF799BE0525FF
:103DD000EDE738BD70B50C4605460622FFF718FF23
:103DE000D5F8FC3004F124022046BDE8704044F6CA
:103DF000C771FFF7D9BD00002DE9F8430746164605
:103E00001D460C4619B94B490320FDF709FA002855
:103E1000F9D03BB1194602F0F5FAB0F1000802DA28
:103E2000BDE8F8839846B4F8643003F00703022B2A
:103E300005D1B4F8649065BB84F8685031E03378FC
:103E4000882B02D133799A06F3D407F58E7943464D
:103E50004A4629462046FFF7C7FD0028E9D13378B6
:103E6000882BDDD1B4F8643003F00503002BD7D0E4
:103E700033795B06D4D543464A4629462046FFF7A8
:103E8000B3FD0028CCD121463846BDE8F843FFF702
:103E9000A1BF84F868804246A91C04F11C000CF004
:103EA000CAF93378882B02D133795B0636D404F112
:103EB000240121480AF0A6FD032221463846FFF7D7
:103EC000A7FE3378882BABD1327990062BD5B4F886
:103ED0006430110654BF23F0080343F00803A4F82C
:103EE000643052069CD4B4F8643003F00703062B08
:103EF00096D1434607F58E7229462046FFF774FD9A
:103F000000288DD004F124010B480AF07BFD2146E6
:103F10003846BDE8F8430322FFF77ABE214638460B
:103F2000FFF758FFCDE709F00709B9F1020FD8D123
:103F3000CDE700BF3415010808180020B0F8640070
:103F400000F007000138012894BF002001207047CD
:103F5000CB08C25C012301F0070103FA01F10A4218
:103F600014BF18460020704730F9081FFEF7ACB8A0
:103F700008B5102203490CF04FF9B0FA80F040095F
:103F800008BD00BF4C1E010838B5054618B9012010
:103F900000F0010038BD0C1D2046FFF7E9FF0028A6
:103FA000F5D12146284606F0B4FAF1E708B590F8B5
:103FB000661021B96C220CF049F9012008BD0020DF
:103FC000FCE7000070B5064610460D461446FFF7A4
:103FD000EDFF26B110223146201D0CF02CF91F2DCB
:103FE00003D906490320FDF71BF9B4F8641021F446
:103FF000F87141EA0511A4F8641070BD3415010888
:10400000014902480AF022BD693F00080818002053
:104010002DE9F8430026074688463446DFF84890E5
:1040200009EB0605B5F86430C3F3041398450DD0C9
:1040300024B995F86630002B08BF2C466C36B6F5CF
:10404000D87FEDD14CB92046BDE8F88329463846E3
:10405000FFF79AFF0028EBD02C462246414638460F
:10406000FFF7B0FFEFE700BF2818002028B16C3041
:10407000064B984203D3002070470548F8E790F8B4
:104080006620002AF8D16C30F3E700BFD819002071
:10409000281800202DE9F8430F46064618B91349A1
:1040A0000320FDF7BDF80025DFF8448008F104097E
:1040B00008EB050494F866303BB96C35B5F5D87F4C
:1040C000F6D100242046BDE8F883B4F86430C3F389
:1040D000041313B10FB19F42EFD1314609EB050034
:1040E00006F017FA0028E8D0ECE700BF3415010805
:1040F000281800202DE9F0410446B0F86400134D63
:10410000C0F3041001F049FBB4F8643004F1240654
:1041100023F0070343F00603A4F864300C4BD0F8F7
:10412000FC8031462846B3F900700AF06BFC00238E
:10413000C4E9093844F6C7732463E385A78531468B
:104140002846BDE8F0410AF033BC00BF0818002043
:10415000C015002038B5044690F866300E4D23F0A7
:10416000010380F8663000F1340128460AF04AFC69
:1041700004F1240128460AF045FC04F144012846D4
:104180000AF040FC284604F154010AF03BFC2046AA
:10419000BDE83840FFF70ABF081800202DE9F843B2
:1041A0008946804618B936490320FDF739F802F0F0
:1041B00007073B1F022BF6D9FFF72AFF0546002809
:1041C0003FD1304E3368FBB11C68A34218D1306038
:1041D00094F8663033F0010319D000233268002AC6
:1041E0002DD012682260326814603460002B45D1F3
:1041F00054B12268944216BF13683360236003E011
:1042000022681A60002CE3D12846BDE8F883B4F890
:10421000642002F4C062002AE0D12046FFF79AFF32
:10422000224649464046FFF7CDFE0123B4F86420FC
:1042300084F866301743A4F864702346CEE7246000
:10424000D3E790F86630DA070AD4B0F8642043F078
:10425000010322F007021743A0F8647080F866306B
:104260002B68002BD0D1074B1A682AB112682A603C
:104270001A6815601D60C7E72D60FBE71D46C3E7A0
:10428000341501080418002070B50C46054600B12D
:1042900019B91D490320FCF7C3FF011D1022204658
:1042A0000BF0C9FFB5F86430082223831749204674
:1042B0000BF0B2FF04F1100638B12378FF2B19D1AF
:1042C000637803F00F03022B14D1B5F86400C0F338
:1042D000041001F062FA0028DBD0D0F80C319B0703
:1042E00008D4324605F10C0102F06AF8002801DB1F
:1042F000A07670BD95F8682005F11C01A2763046C5
:10430000BDE870400BF097BF341501081C1E010872
:10431000F8B5154C074625680E46EDB1B5F8643082
:10432000C3F3041399421DD1291D06F0F2F8C8B158
:1043300095F8663043F0080385F866302046F8BDEE
:1043400031463846FFF73EFE226892F8663043F069
:10435000080382F86630F1E7FFF75AFE0246206054
:104360000028EDD10020EAE7F015002010B5044642
:10437000006860B190F8663023F0080380F866307A
:10438000FFF714FE1422002120460BF05FFF034BC1
:104390001A68A24204BF00221A6010BDD81900207A
:1043A00028B11430074A904203D3002070470648D2
:1043B000F8E703681BB193F86630002BF6D1143090
:1043C000F1E700BF04160020F015002038B50C4CB2
:1043D00025688DB1B5F86430C3F3041399420BD14D
:1043E000291D06F096F840B195F866301B0705D4F4
:1043F00004490320FCF714FF002038BD2046FCE7E9
:10440000F01500203415010810B5134C216839B19E
:104410000B68B3F8643003F00703013B012B0DD8A0
:104420000020FFF7BDFF58B90846FFF7B9FF01B1FB
:1044300010B90020FFF7B4FF20602168084610BDC6
:104440000368B3F8643003F00703013B012BE8D99C
:1044500020600146F2E700BFD819002038B50C46AD
:10446000054610B1036803B119B914490320FCF7DC
:10447000D7FE1022002120460BF0E8FE0023104A50
:1044800084F820301268AA4209D12B68B3F864304E
:1044900003F00703013B012B94BF002301231022EB
:1044A00084F821302968A01804310BF0C4FE2B6871
:1044B000B3F86430C3F30413638438BD34150108C2
:1044C000D81900202DE9F74F80468A461D469146AF
:1044D0001AB93B490320FCF7A3FE1046FFF748FD3D
:1044E0000028F6D16B1E7F2BF3D804460646354FC5
:1044F00097F83120A7F1040B954257F8043C2BD1D3
:10450000002B58D0B3F86420C2F30412924523D193
:10451000194640460193FFF737FD019BE0B149463C
:10452000384606F00BF88542019B15D8B8F1000F0C
:1045300004D010224146181D0BF07DFE5C46224B34
:10454000B6019A5992F8663043F0400382F866301B
:10455000204603B0BDE8F08F14B9002B08BF5C46BD
:104560000136082E07F14007C2D1002CF0D0514689
:104570004046FFF74DFD0646206030B90146402217
:1045800020460BF063FE3446E2E7024651464046C1
:10459000FFF718FD204650F8042BEDB292F8663074
:1045A000494643F0400382F866302A4605F0E9FFA9
:1045B00084F83550CCE7002C08BF5C46D0E700BF3C
:1045C00034150108081600200416002038B50446EA
:1045D0000068F0B100230F49CA18944202D05D5818
:1045E000A8420CD04033B3F5007FF5D190F8663087
:1045F00023F0400380F86630FFF7D8FC02E0064B5A
:104600009A42F3D22046BDE83840402200210BF008
:104610001DBE38BD041600200418002028B140300B
:10462000064B984203D3002070470548F8E790F8FE
:104630003420002AF8D14030F3E700BF04180020EE
:1046400004160020054B984206D303F500739842E8
:104650002CBF002001207047002070470416002066
:1046600070B50C46054610B1036803B119B913497A
:104670000320FCF7D5FD011D102220460BF0DBFDC9
:10468000002195F8353084F8211084F820302E6808
:1046900004F11000B6F864301022C3F304136384ED
:1046A00095F83430042B03D1BDE870400BF0CEBD3B
:1046B000311DBDE870400BF0BEBD00BF34150108D0
:1046C0002DE9F74F8A461646074600B11AB9244924
:1046D0000320FCF7A5FD00252C46A846DFF884B092
:1046E0000BF104030BEB050999F834206AB1581952
:1046F0003946019305F022FF4045019B05D999F801
:10470000352082429CBF80464C464035B5F5007F3F
:10471000E8D11CB194F83430042B1BD1FFF774FEA0
:1047200098B9BCB9204601F00DF8044620B96FF0E5
:10473000710003B0BDE8F08FD4F8A030002BF1D0A9
:104740005246394601209847ECE73146FFF786FE8E
:104750000020EEE731462046FFF782FFF8E700BF72
:10476000341501080416002038B5044690F834309A
:1047700023F0040380F83430FFF728FF0A4BE41AD3
:10478000A411072C0ED8094D214605F12800FFF78A
:10479000DFFB38B10123A34095F8284024EA030445
:1047A00085F8284038BD00BF04160020C41500203D
:1047B00010B5044640B90B490320FCF731FD0A4807
:1047C000FFF7D6FB38B910BD074905F0A2FE002857
:1047D000F5D00548F7E71022214603480BF02BFDE2
:1047E000F7E700BF34150108C415002070B550B3B9
:1047F000174905F08EFE50B30024164E164D214683
:104800003046FFF7A5FBC8B90134082CF7D10024C6
:104810002546124E21463046FFF79AFB48B901342F
:10482000102CF7D12C22BDE87040002108480BF075
:104830000DBDE0B204F02EF90574F0E705EB84102D
:10484000FFF792FFE0E706490320FCF7E9FC70BDA3
:10485000C4150020EC15002004160020ED150020E2
:104860003415010808B520B119B191F834305B074F
:1048700003D408490320FCF7D3FC074B591A8911CC
:10488000072906D801238B4090F82810194380F897
:10489000281008BD341501080416002070B539B180
:1048A0000E4B5B1AB3F5007F02D30024204670BD87
:1048B0000A4E00F128050846FFF7B0FE044600281E
:1048C000F3D094F834305B0706D5A11B8911284634
:1048D000FFF73EFB0028E9D12146ECE70416002053
:1048E00038B538B100F12C04074DAC4204D3002494
:1048F000204638BD054CF7E72046FFF739FB002876
:10490000F6D02C34F1E700BFF0150020C4150020CC
:104910002DE9F8431E4613460A4601460020089D2D
:10492000FFF7D0FD0446002840D090F83430AE4266
:1049300043F0040380F8343003D21F490320FCF70E
:104940006FFC771C01D1681C33D0FCF767FB4FF478
:104950007A7200230BF0FCF8691C07461DD0174B38
:1049600004F1140841461648B3F900900AF04AF8D9
:104970000023C4E9053544F6CC732462E383A4F82C
:104980001C9041460E480AF013F8AA1C05D0EB19FA
:10499000013301D107B101353D44F31C04D8F319AB
:1049A000013308BF01363E44C4E90E652046BDE828
:1049B000F8832E46F8E700BF34150108C015002023
:1049C00008180020002210B5094B9B691BB94FF055
:1049D000FF32104610BD5C6822445C898C4204D1D1
:1049E0000028F6D0DC688442F3D01B68EEE700BFF5
:1049F0000818002070B5054614460E4609B9002077
:104A000070BD082213490BF007FC38B12B78FF2B3F
:104A1000F5D16B7803F00F03022BF0D104F11002F3
:104A200005F10801304601F0CBFCC0B20028E6D009
:104A3000A0761022294620460BF0FDFBB6F91C316A
:104A400001201B0103F4F87343F4806343F0060371
:104A50002383D5E71C1E01082DE9F843054601F024
:104A600099F90446FFF7D0FC064600285DD000689F
:104A7000FFF764FA002858D0002C58D03368B4F9F6
:104A80001C11B3F86420C2F30412914203D02949E7
:104A90000320FCF7C5FB043318462A462146FEF7DF
:104AA000C1FF2946204601F06BF821180B7C064611
:104AB00003F01F02102A29D003F00702013A012A4D
:104AC0002BD80133D4F800710B74751C2D0105F13E
:104AD0000208C4352544184B29461848B3F90090FC
:104AE00009F090FF0023A04404EB0614C4E9353715
:104AF00044F6CF73C4F8E080A4F8DE30A4F8DC906C
:104B00002946BDE8F8430D4809F052BF4EF660272C
:104B1000DBE72946204601F033F8002384F807310B
:104B20002046BDE8F843FEF7E1BC002CF1D1BDE81A
:104B3000F88300BF34150108C015002008180020B4
:104B40002DE9F0470E461F46044618B94C4903208C
:104B5000FCF766FB93F801C0BCF1020F02D0042001
:104B6000BDE8F0871578882D7DD190F81821082AA6
:104B7000F5D103F1080100F588700BF04DFB0546F7
:104B80000028ECD1BB78012B47D003D3022B4AD0AD
:104B9000B878E5E7FD8806F1180120466DBA00F007
:104BA000EFFFADB2012D18BF4EF6602804EB0002F6
:104BB000137C18BF08FB05F800F101054FEA051545
:104BC00023F01F0343F0100305F1020905F1C405AA
:104BD000254413742B4B18BFA8F56A48064629468E
:104BE0002948B3F900A014BFA8F1600847F2305873
:104BF00009F008FF0023A14404EB0614C4E935388A
:104C000044F6CF73C4F8E090A4F8DE30A4F8DCA03A
:104C100029461D4809F0CCFEBAE706F118012046E6
:104C200001F0FAF9B4E7B4F91C1106F10800FFF736
:104C3000CDFB8046002889D0FFF798FB2846FFF778
:104C4000AFFB30B90023204684F80731FEF74EFC55
:104C50009EE7D8F80030002B3FF478AF06F118003B
:104C6000FFF7FAFE94E7D0F80C41A4077FF577AF81
:104C7000872D7FF474AFBDE8F047FEF701BE00BF9B
:104C800034150108C015002008180020F8B5437835
:104C90000546032B02D000242046F8BD0830FFF75C
:104CA00087FD04460028F6D06B88AA885BBA52BA02
:104CB0009BB243EA0243ED8802696DBA9A42ADB2F3
:104CC00008D30361FCF7AAF9114A00230AF040FF58
:104CD0002844606142F2107304F11806002D08BFE9
:104CE0001D460C4B31460C48B3F9007009F08AFEA2
:104CF0000023A3614EF660235D4344F6CB73E56168
:104D00006384646227843146034809F051FEC3E797
:104D100000879303C015002008180020F7B54B78D2
:104D20001646022B2CD18A78402A29D80378862B64
:104D300026D1CC88CF7864BAC7F30013A4B207F0A9
:104D40000F05009308312346284603F0C1FE1EB923
:104D50000D490320FCF764FA012107F0070706F16B
:104D60002902E808B940135CC9B23CB923EA01033F
:104D700013544EF66020604303B0F0BD0B43F7E7D9
:104D80004FF0FF30F8E700BF34150108F0B50446D6
:104D900085B00D4617460021102268460BF056FAE2
:104DA000D4F80C31DB0707D502AB94F8182104F5D1
:104DB0008871204601F0B2FA3A462946684605F065
:104DC000E0FB6946204600F0DBFE061E25DA0723DD
:104DD0003A466946204601F053F8061E1BDB0127C0
:104DE00008220F4928460BF017FA38B12B78FF2B11
:104DF0000BD16B7803F00F03022B06D1A219137CA1
:104E000023F01F0343F01003137427B104EB0610C3
:104E10001230FFF721FE05B0F0BD0027E0E700BF2C
:104E20001C1E010870B506461846FDF795FD0446A0
:104E300078B1FF224368DA7100231A4619461846F2
:104E400001F002FB054630B92146204601F0E6FCA0
:104E50002C46204670BDB6F9002043685A80046095
:104E6000F6E7000008B502490320FCF7D9F900BFB6
:104E70003415010838B50D46044610B10378FF2BF0
:104E800001D1FFF7EFFF182300228721284609F000
:104E9000BFFE68B1002243681A715A719A71DA71C3
:104EA000216862689960DA60A168E26819615A61F4
:104EB00038BD70B50D461646044610B10378FF2B79
:104EC00001D1FFF7CFFF182300228821304609F0D7
:104ED0009FFE78B10022436825F01F051D71DA712D
:104EE0009A715A71216862689960DA60A168E26813
:104EF00019615A6170BD08B500220823852109F0A7
:104F000087FE28B1002243681A715A719A71DA71CA
:104F100008BD2DE9F04180460F4616461D46002289
:104F200010238621079809F073FE60B1069B446840
:104F300027F03F0776BA2DBA1BBA84F80480677150
:104F4000E680A560E360BDE8F081002310B504466B
:104F50001046CA1D02F0F802194601F0A7FD20B163
:104F6000426814708368DB08537010BDF8B50746BB
:104F70000E4618460231FFF7E8FF044660B1456867
:104F800082680235023A002128460BF05FF932466A
:104F9000394628460BF04FF92046F8BD10B500B150
:104FA00009B9FFF75FFF0123BDE81040FFF7DEBF3F
:104FB00010B500B109B9FFF755FF0223BDE8104055
:104FC000FFF7D4BF2DE9F0410E4690461C46074638
:104FD00018B91B490320FCF723F9082219490BF0E3
:104FE0001BF90028F5D03B78FF2BF2D0802EF0D8AB
:104FF000079A20210320FFF7A8FF0546E0B1002112
:1050000040689DF8183024BA846023F03F0300F113
:10501000100498FA88F8017341738173C173867024
:10502000C370C0F80480102220460BF00FF93246FE
:105030003946204605F0A5FA2846BDE8F08100BFB4
:10504000341501081C1E010810B50A460446082143
:105050000520FFF77AFF28B10022436824BA9A702E
:10506000DA705C6010BD00002DE9F341089D0C462C
:1050700016469846074610B10378FF2B03D1264900
:105080000320FCF7CDF80029F9D0B8F1000FF6D0D5
:10509000084600F003FC36B932463946204600F097
:1050A0009FFD0646A8B110221C4930460BF0B4F80B
:1050B00078B104F5887194F8182168460BF0BBF8B4
:1050C00094F8181129B12A466846FFF767FFF0B136
:1050D000054638462946FFF7CDFE0746B8B10346D8
:1050E0004246314604F58E70FFF79CFE054668B1D6
:1050F000034640F202220A49022000F0A0F930B132
:10510000204600F0D2FB02B0BDE8F0813D46002110
:10511000284601F0AFFDF3E7341501084C1E0108E5
:105120000000FFFF2DE9F04786B00C4691469A46F5
:105130000E9D074610B10378FF2B03D1354903209C
:10514000FCF76EF80029F9D0002AF7D0084600F0E5
:10515000A5FB3946204600F013FDB0F1000853DBF3
:10516000D4F80C31102203F00603062B2A494846D6
:1051700014BF002680260BF04FF81022A0B9274953
:1051800002A80BF058F804F5887194F818216846C5
:105190000BF051F894F8181179B12A466846FFF7D8
:1051A00007FF88B3054608E0494602A80BF043F81C
:1051B00046F04006BAF1000FE5D135B1A04498F8A9
:1051C00010309B0648BF46F0200631462A46384636
:1051D000FFF76FFE0646B8B1034602AA002104F5A8
:1051E0008E70FFF71FFE054668B1034640F20222AB
:1051F0000B49022000F023F930B1204600F055FBA6
:1052000006B0BDE8F08735460021284601F032FDA2
:10521000F3E700BF341501084C1E0108FC1D01080E
:105220000000FFFF2DE9F3410E46054618B9244959
:105230000320FBF7F5FF234B002908BF1E4600F0B3
:105240002DFB00223146284600F0CAFC804698B368
:1052500005F5887195F8182168460AF0ECFF95F875
:10526000181151B100226846FFF798FE044628B98C
:105270000021204601F0FEFC18E00C462046FFF716
:105280003AFE07460028F3D003463246414605F56C
:105290008E70FFF7C7FD044680B1034640F202223C
:1052A0000949022000F0CBF80028E1D0284600F0A0
:1052B000FCFA02B0BDE8F0810446DFE73C46D7E7E0
:1052C000341501080C1E01080000FFFF2DE9FF4105
:1052D00004463F4F9846002A18BF17460E460A9DBF
:1052E00000F0DCFAD4F80C311B0706D52946B4F8D7
:1052F0000A01FFF7A9FE40B1054696B901223946D9
:10530000204600F06DFC064658B90021284601F001
:10531000B1FC56E04FF0000C2EE0002136E045468F
:10532000F3E704F5887194F8182102A80AF083FFC6
:1053300094F8181131B12A4602A8FFF72FFE002871
:10534000E3D00546D4F80C1111F0100018BF94F802
:105350001A0111F0200305D0D4F8F8301D4A934209
:1053600028BF134611F0400218BFD4F80021B8F14D
:10537000000FCFD1B4F804C194F809E1BEF1020FD7
:10538000CBD111F0800F0CBF8021C021CDE90025C9
:105390006246FFF7BEFD80460028B6D003463A4677
:1053A000314604F58E70FFF73DFD05460028B6D066
:1053B000034640F202220849022000F040F800288B
:1053C000A3D0204600F071FA04B0BDE8F08100BF20
:1053D000FC1D010880EE36000000FFFF00B589B01B
:1053E00006930A9B8DF81410ADF81C30BDF82C30D4
:1053F000ADF81620ADF80630024605AB03A901A8AA
:105400000293FCF7CBFE40F20523BDF80E209A4232
:1054100003D004490320FBF703FF049809B05DF8AB
:1054200004FB00BF3415010807B501910146684629
:10543000ADF80220FCF78EFE03B05DF804FB2DE909
:10544000F0410446884617461E4601F0BAF9054663
:1054500048B14146204601F0AFF9691E0446304686
:1054600001F0F6FB14B92846BDE8F0813A46314612
:10547000B4F90800FFF7D8FF002803DC002130460C
:1054800001F0F8FB204601F0AAF90446EAE7000023
:1054900070B50446084D03682A465E691C21012345
:1054A000B04723682A465E692046B446BDE870408E
:1054B00001231E21604700BFDF1A010808B5102232
:1054C00003490AF0A9FEB0FA80F0400908BD00BF08
:1054D0004C1E010810B50822094904460AF09CFE3A
:1054E00048B12378FF2B08D1607800F00F00831EAD
:1054F0005842584110BD0120FCE70020FAE700BFE8
:105500001C1E0108F8B5044608460F461546FFF76D
:10551000D5FF98B95DB1052604F13205002439465E
:1055200005EB041004F0F5FF28B12046F8BD04F1A6
:1055300012050226F2E70134A642F0D14FF0FF3007
:10554000F4E7A0F130020346D0B2092802D8114690
:1055500008467047A3F14102052A02D8A3F137019A
:10556000F6E7A3F16102052A98BFA3F15701EFE71F
:1055700070B54568044600F079FE2B6801461E6947
:1055800004F5887208232846B04710F1860F08D02A
:10559000D4F80C31002843F00103C4F80C3108DCC6
:1055A00070BD94F81831002BFAD003490320FBF7A3
:1055B00037FE84F81801F3E7341501082DE9F041AE
:1055C00088461746054600B119B91E490320FBF766
:1055D00027FE047C54B31ABB05F11206414630463F
:1055E00004F0ACFF4028044603D83046FFF772FFB2
:1055F000F8B900266B7C83B127B19A060DD43B78AD
:105600009B070AD522354146284604F097FF4028DB
:10561000074610D9A74228BF01263046BDE8F081D1
:10562000A10606D4147814F00104D5D14FF0FF364A
:10563000E0E70024FAE72846FFF74CFF0028E9D00E
:10564000EBE700BF341501084FF6C06203885BBA70
:1056500023F03F031B041B0C93420AD00378FF2B5B
:1056600009D1437803F00F03052B14BF0E2005204A
:105670007047052070470E207047000013B50346A1
:10568000806891B941F23423ADF800100190B0F96F
:105690001C116846ADF80230FCF73AFD002802DC28
:1056A00013480AF009FF02B010BD04291CD00729D5
:1056B00016D00229F7D103689B6898470446002852
:1056C000F1D003460B4940F2012290F91000FFF798
:1056D000B6FE01460028E6D1204601F0CBFAE2E70B
:1056E0009A6901329A61DEE75A6901325A61DAE752
:1056F000961A01080000FFFFF0B585B00A9E0E4C17
:10570000D4E90057B74213D025B9C4E902550B9D1F
:1057100025601FB109490320FBF782FDCDE9014354
:10572000074B666000930823FBF770FE0028F1DD4D
:10573000014805B0F0BD00BFDC1900203415010898
:10574000B958000808B50B4B60B1984203D20A491A
:105750000320FBF765FD00F59070084B984203D3DA
:10576000002008BD1846F8E70268002AF9D100F5C4
:105770009070F3E7DC19002034150108FC1A0020B2
:1057800010B500242046FFF7DDFF08B9204610BD04
:105790000368002BF7D00134F5E710B5044600206C
:1057A000FFF7D0FF18B1B0F91C31A342F8D110BDFA
:1057B0002DE9F84380460E4615460AB120B919B1C5
:1057C0000D490320FBF72CFD00242F462C7006F119
:1057D000FF39B44202D12846BDE8F88318F8041016
:1057E000384609F03DF9A14514BF3A230023384457
:1057F000471C03700134ECE7341501082DE9F84F1C
:1058000080460F4619B924490320FBF709FD18B952
:1058100000252846BDE8F88F0378002BF8D0034612
:105820001E4675780133002DFAD13C464FF0010930
:105830004FF0FF313078FFF784FEB0F1000B06F136
:10584000FF3A15DAB9F1000FE2D14FF00109C24574
:105850000CD2B9F1000FDBD1013CA742D9D2237899
:105860003A7804F8012907F8013BF6E75646DFE7E6
:10587000D0450FD8002116F8010CA6F1020AFFF757
:1058800060FE4BEA001B84F800B0013501344FF094
:105890000009DCE70020F4E73415010820B10368B3
:1058A00013B1083008F0E0BF704720B1036813B1AE
:1058B000083008F0DDBF70472DE9F04140F20523C4
:1058C0000026044694B0CDE90066ADF80230FFF73B
:1058D000E5FF3E4B08211B8804A8A4F81C3165682D
:1058E000FCF7BEFC3A4B2846C5E901342B689B689F
:1058F0009847011E5DDB2846FFF7CAFD606802AAD3
:10590000036827211E690223B047022803D03149CA
:105910000320FBF785FCBDF80830204684F81B31D6
:1059200000F0C4FC2046FFF723FE4023204684F805
:105930001A31FDF74DF923681B680BB120469847D3
:105940002046FFF7B2FF40F2032641F2342740F22F
:10595000022802A8FCF781FCBDF80A30B3421AD035
:10596000B3F5017F09D243450FD023685B69002B53
:10597000EFD002A920469847EBE717D0BB42F4D1FD
:105980002B682846DB689847E3E7236803995B6840
:1059900020469847DDE723681B690399204698470E
:1059A0006946019002A8FCF727FCD2E72368DB6870
:1059B000F3E709480AF0F8FC30462660A4F81C61B9
:1059C0006660C5E9016614B0BDE8F0813C040020C2
:1059D0007D56000834150108BB1A01082DE9F8436B
:1059E0000D460646FFF75AFF2B782C890E2B00F048
:1059F000B48030D8092B6BD00DD8072B57D0082B8B
:105A000000F0968070686A68036829781C692B89A1
:105A1000A047044645E00B2B75D00C2BF2D10F2C80
:105A200039D90024D5F8048006F1320706F182093D
:105A30002B89A34235DDB94533D03846FFF73EFD0B
:105A400038B94046102239460AF0F5FB103408F107
:105A500010081037ECE72B2B30D00ED80F2B00F0AE
:105A60008580112BCED16B88022BCBD1022C12D189
:105A7000B6F80A216B681A8013E03F2B09D0402B3F
:105A8000C0D1012C07D1D6F80C316A68C3F30023CA
:105A90006AE0012C03D039490320FBF7C1FB6B6896
:105AA0001C703046FFF701FF2046BDE8F883012C4B
:105AB000F1D16B6896F81A211A70F2E76B88022B05
:105AC000A0D1042CE7D16B6806F184021A60E8E7E4
:105AD0000F2CE0D9347C6F683CB13846102206F1B7
